:0400000071EF87F025
:10000800F74CF74CF74CF74CF74CF74CF74C5E486D
:10001800F74CF74CF74CF74CF74CF74CF74CF74CC0
:10002800F74CF74CF74CF74CF74CF74CF74CF74CB0
:10003800F74CF74CF74CF74CF74CF74CF74CF74CA0
:10004800F74CF74CF74CF74CF74CF74CF74CF74C90
:10005800F74CF74CF74CF74CF74CF74CF74CF74C80
:10006800F74CF74CF74CF74CF74CF74CF74CF74C70
:10007800F74CF74CF74CF74C4200F74CF74CF74C61
:10008800F74CF74CF74CF74CF74CF74CF74CF74C50
:10009800F74CF74CF74CF74C4200F74CF74CF74C41
:1000A800F74CF74CF74CF74CF74CF74CF74CF74C30
:1000B800F74CF74CF74CF74CF74CF74CF74CF74C20
:1000C800F74CF74CF74CF74CF74CF74CF74CF74C10
:1000D800F74CF74CF74CF74CF74CF74CF74CF74C00
:1000E8004200F74CF74CF74CF74CF74CF74CF74CF1
:1000F800F74CF74CF74CF74CF74CF74CF74CF74CE0
:02010800FF00F6
:1040000000343030342F3430343020536F667477BE
:104010006172652053657269616C206F6E20616EFC
:104020006F7468657220706F72740D0A0A00202523
:104030003033582025303258202530325820253052
:104040003158253032582025303158253031582507
:1040500030315825303158200050574D32202D3EF8
:1040600020524432202D3E20504849322077696446
:1040700074682025332E3066206E7365630D0A0A3E
:104080000050574D33202D3E20524433202D3E20EA
:10409000504849312077696474682025332E306692
:1040A000206E7365630D0A005049432055415254F8
:1040B00020646973706C61792072756E6E756E67BD
:1040C000206D6F6E69746F720D0A000D0A454D55B3
:1040D0003430303420636C6F636B207370656564BB
:1040E0002025332E30666B487A0D0A00696E660013
:0940F0006E616E001B5B480000CC
:020000040001F9
:10000000F0D0FD59395D822200A358EE58E2730901
:10001000F058EE203B5E0020175E00225D5D285DFB
:10002000005D715CEF142B5D5C401B5D2820725DF0
:10003000C31C3750874C0620775DC31C4150874C4A
:100040003020525DC31C494CAE20575DC31C514C3F
:100050007320435DC31C594CD520425DC31C6148CD
:10006000F320675DC31C694C0020765DC31C7141A1
:1000700000206C5DC31C794AD3204C5DC31C814BAE
:100080001C20915E00401B20405E005D005D285DED
:10009000B7A3BA20475E005D005D285DB7A3F1F508
:1000A000F1F5BB5D5CC02E305DD012ADC02E3A5D67
:1000B000D012B4C12E415DD012BBC02E475DD0120C
:1000C000C2C12E615DD012C9C02E675DD012D0C1F1
:1000D000C0FFFFFFFFFFFFFFFFFFFFFFFFFFFFFF6F
:1000E000FFFFFFFFFFFFFFFFFFFFFFFFFFFFFFFF20
:1000F000FFFFFFFFFFFFFFFFFFFFFFFFFFFFFFFF10
:1001000020545E0022002078565F207A565F2074CB
:100110002401260055F92078566A5DF51458207C94
:100120005E0058B0207A566A58B05D5320835E0056
:100130002000220059D955DA57EC59FC5D5C226C3D
:1001400055B9144E208C5E00226C581D5D5C220057
:100150002078565F207A565F2EFC2FECB2EDB35D0F
:10016000F5146F20885E00A25D48A35D48593920D0
:10017000755E00206C554220002400260055F95A77
:100180001D59062E2E5DD01C8B401B5D8C14914199
:10019000A5206C2400260055F92070240D26FF555B
:1001A000F92000427222A05A6455B91CAF4214557E
:1001B000CA56232074A6B2A7B3592155CAA4B2A522
:1001C000B3592155CAA0B2A1B359D955CA55CA20AD
:1001D0000059065DF514E155CA2074592155CA41EC
:1001E000CF20742200592155CA567522A059FCA26D
:1001F000B0A3B1A6B2A7B3592155CAA4B2A5B359A9
:10020000214173590655CAA2B6A3B7590655CAA2C9
:10021000B4A3B5C020002401260055F9227457C8A4
:100220001A2441165203226C560E581D5D5355CAAE
:1002300055CA57EC5D5C55CA421C200024012600BB
:1002400055F9520320A055F9226C57C8125C2000C2
:100250005203227455F957C8126042425562426AED
:10026000411620005203206C55F9200052032070E3
:1002700055F942862074227057C81A8414842000CD
:10028000554F426241162000551C59065DF51C92DF
:10029000427455CA2E3F5DD0149C42BD59062E248F
:1002A0005DD01CAB55CAD1533943442E3F5DD01CA1
:1002B000B855CAD253394344D05339434455CA5927
:1002C0005B228C24DD4394248C59A55D9A14D5556A
:1002D0002D557542862E3B5DD01CE5228C55B91CF0
:1002E000E3427442862E235DD01CF9228C55B9144A
:1002F000F7226C5575423A42862E215DD0000000EF
:1003000000140543112094226C554F55CA20004219
:10031000EB2E265DD01C1D2274557542862E245D61
:10032000D01C2DA4B0A5B1566A5D284286207A560D
:100330005F207822E0565F41162E7E2FE0C02E7E91
:100340002FE9B5C055CA59065DF51C4E438C2E22C7
:100350005DD01C564378228C24E74394533EF0D161
:10036000951C6B208C566A58B04392F0D2951C7441
:10037000588D4392581D439255CA57F459062E3B47
:100380005DD014885D5C439255CA4392207822A0C8
:10039000411642865973595B200059065DF51CA829
:1003A000207822E1565F4116228024DF445020004D
:1003B000228059D959065DF51CBC444055CA2E29E6
:1003C0005DD01CC644402E205DD01CCE4440595BFD
:1003D000228424E1445059BF228059FC2080228489
:1003E0002E2B5DE91CEA56C043AE2E2D5DE91CF4B0
:1003F00056D543AE2E2A5DE91CFE56FE43AE2E2F87
:100400005DE900001C0A572143AE2E3D5DE91C1E2C
:1004100057C81418554243AE2201563843AE2E3CFD
:100420005DE91C2A57C81A1844142E3E5DE91C3693
:1004300057C81A144418207822E2228059D941164C
:1004400022A059FC59A520A05562200059BF4BD0CD
:100450005973595B200059062E285DD01C6855CA77
:1004600024E322884394451024882E2D5DD01C80DF
:1004700055CA24E522884450208855EB55CA4510BA
:100480005D8C148A22885A6445105D9A1494552D07
:10049000559B450E2E255DD01CA02290559B450EE8
:1004A0002E235DD01CAC226C559B450E2E215DD0B9
:1004B0001CB82294559B450E2E275DD01CC4229853
:1004C000559B450E2E265DD01CD02274559B450EA3
:1004D0002E245DD01CE05D00208856382000450E9B
:1004E0002E3F5DD014E845022000220059D9240097
:1004F000260055F95A1D228824E94394220059FC0C
:10050000450E207A565F22F02078565F411655CA74
:1005100059A520885562200059BF4BD0595B590618
:100520002E205DD01C2A55CA451E59A5C0F0A2F642
:10053000F7F5F5B2A3F6F1F6F182B2F0A3F5F1F515
:10054000B3C0A1BFDCBEF021E0617E47AFB1C0A166
:10055000BFA3BDDCBE23E921E061637E55AFB1AD31
:10056000B3C0A1BFA3BDDCBE21E923E061637E6807
:10057000AFB1ADB3C0A5BFA3BDDCBE25E923E06527
:10058000637E7BAFB5ADB3C0A1BFA5BDDCBE21E925
:1005900025E061657E8EAFB1ADB5C0A3BFA5BDDC62
:1005A000BE23E925E063657EA1AFB3ADB5C0A1BFB1
:1005B00061616121E9F5AFB1C0A3BFDCBE23E91CD5
:1005C000C7637EBDAFB3C0AFB3C1A1BFDCBE21E97D
:1005D000F2E01CD7617ECEAFB1C0A1BFDCBEF1217D
:1005E000E9F8E012E8617EDFAFB1C0A1BFDCBE2157
:1005F000E9F4E0617EEFAFB1C021A7E06121A6E0A0
:100600006121A5E06121A4E0A1F8F8F8B1C023A719
:10061000E06323A6E06323A5E06323A4E0A3F8F846
:10062000F8B3C023E9B76323E9B66323E9B56323CD
:10063000E9B4A3F8F8F8B3C021A3E06121A2E0F087
:100640006121E06121E0A1F8F8F8B1C02E7D2FF022
:10065000E0C02E7D2FE9F4E0C02E7D2FE9F6C02109
:10066000A3E06121A2E0A1F8B1C021E9B36121E9D1
:10067000B2A1F8B1C021E9B76121E9B66121E9B5BC
:100680006121E9B4A1F8F8F8B1C0A1BFDCBEF12145
:10069000E9F5E0617E8FAFB1C0A3BFDCBEF123E915
:1006A000F5E0637E9EAFB3C0656565DCBEF0BFAFAD
:1006B000F625E9F6E0F7BFA5F8B57EAF65AFF6C061
:1006C000A1BFA3BDDCBEF123E921EBE061637EC7DE
:1006D000AFB1ADB3C0A1BFA3BDDCBEFAF321E92326
:1006E000E821E061637EDCAFB1ADB3C0A6B7A5B6CB
:1006F000A4B5F0B4C0A5B4A6B5A7B6F0B7C0595B11
:10070000597324A0558824A4559B554222A024A4A3
:10071000D0BA56A81A1856C056997A1259BF59A578
:10072000C059D9595B5943564C240055AE1A375518
:10073000EB55CA5652240159735675209055F9A2AB
:10074000B0A3B155AE1A4D55EB55CA56525623209B
:100750009028002A00A41C9B56F5A41C8E56F5A4D4
:100760001C8156F5A41C7420905542598B247F2679
:10077000FF55F9C1560E56D51A7D68477656C056B4
:10078000EC560E56D51A8A69478356C056EC560E5B
:1007900056D51A976A479056C056EC560E56D51A3B
:1007A000A46B479D56C059BFA514AF55EB55CAA8B9
:1007B000B4A9B5AAB6ABB7598B55F956591AC35552
:1007C000EB55CA59A559FCC0A1BFA3BDF0BCDCBE06
:1007D000FAF321E923E86163BBAB14DED1BC7ED11F
:1007E000ABF5F3AFB1ADB3AC14EBC1C05973595B0A
:1007F000220047F85973595B5943A2B4A3B559066F
:100800005DF5140E5DDD140E5D2855CA47FE24000B
:100810005DDD141655CA598B59A559BFC0594359A6
:10082000D9595B5973A2B0A3B1229059D92E7CD16A
:100830002FE055AE1A3E55EB55CA222D5D2822AC4D
:1008400024272610560E572158C32290554F22AC0C
:10085000240326E8560E572158C32290554F22AC48
:1008600024002664560E572158C32290554F22ACBF
:100870002400260A560E572158C3209021E95D48CE
:10088000229059FC59BF59A559FC598BC0595B5945
:1008900073A6B4A7B559735623A45D48A55D48A6B1
:1008A0005D48A75D4859BFA4B6A5B759BF59A5C0B3
:1008B0005943595BA2B0A3B1A05D48A15D4859A5B9
:1008C000598BC021E91CCE2E7C2FE914CEC15D4886
:1008D0002E7CF02FE0C021A3E3A2E3C02DAFE3AE56
:1008E000E3C02CFE2E3258DC6D2EC058DCC02E002A
:1008F0002FE1C020405E005D005D285DB7A358EE8B
:1009000058E25D5C401BA0BCA1BD2DE92E002FE18B
:100910006D2DE9B16D2DE9B05FFEACB0ADF8F8B169
:10092000C021E92E002FE16121E9BD6121E9BC2D43
:10093000A3E3A2E3A1F8F8B1C020FC220021A2E4C5
:10094000A3E5C0D2BC2EFC2FEDF19CE5BFEC12510B
:10095000F8E4BE2FA1E06F2FA0E0C0D2BC2EFC2F88
:10096000EDF19CE5BFEC1269F8E4BE2FA3E06F2F18
:10097000A2E0C0D2BC2EFC2FEDF19CE5BFEC1281B1
:10098000F8E4BE2FA5E06F2FA4E0C02EFC2FECBE34
:10099000EDBF2FE9B16F2FE9B02CFC2D6FAFE51C37
:1009A000A46EAEE4C02EFC2FECBEEDBF2FE9B36FFA
:1009B0002FE9B22CFC2D6FAFE51CBE6EAEE4C02E4D
:1009C000FC2FECBEEDBF2FE9B56F2FE9B42CFC2D49
:1009D0006FAFE51CD86EAEE4C0A3BDD4BC2EFC2F17
:1009E000EDF19CE5BFEC12E9F8E4BEDCBC23E92F95
:1009F000E06FAF1CF66E637CEDADB3C0A3BD2EFC03
:100A00002FECBEEDBFDCBC2FE923E06FAF1C106EF6
:100A1000637C07ADB32CFC2DAEE4AFE5C059435960
:100A20005B22A055625D005CEF14315D695D6D4A2B
:100A3000532E085DD01C4B22A057C81C3F4A255599
:100A4000DA22085D285D535D284A255D2859215525
:100A5000CA4A252200592155CA592122A0554F5969
:100A6000A5598BC05943595BA0B4A1B5A2B0A3B19D
:100A7000554220A05542A4B0A5B159062E305DD0F4
:100A80001C844ABF5DB720A4563820A022A055B9C7
:100A9000149E22A85562568A568A56C0568A22A4A7
:100AA00056C0A4B0A5B155CA59065D8C14B04A848D
:100AB00059A520A05562598BC020A055F94AB024F1
:100AC00000260055CA590650A614B95DB756F5A3BD
:100AD000B74AC3204E5E00F0B45D005D285DB7A349
:100AE000B55D005D285DB7A3B6F0B722A0560E5DD8
:100AF000005D285DB7A3F4BB00000000000000000B
:100B00005D5C22A0588D223A5D28D0BA20A05906FB
:100B100058B055CA7A0C7B005D5C401B204E5E00CD
:100B2000F0B45D005D285DB7A3B55D005D285DB7DD
:100B3000A3B65D005D285DB7A3B722A0560E5D5C2D
:100B400022A0588D223A5D285D005CEF1C645D2870
:100B50005DB7A3B45D005D285DB7A4B220A05921A4
:100B600055CA4B3E5D5C401BFFFFFFFFFFFFFFFFD1
:100B7000FFFFFFFFFFFFFFFFFFFFFFFFFFFFFFFF85
:100B8000FFFFFFFFFFFFFFFFFFFFFFFFFFFFFFFF75
:100B9000FFFFFFFFFFFFFFFFFFFFFFFFFFFFFFFF65
:100BA000FFFFFFFFFFFFFFFFFFFFFFFFFFFFFFFF55
:100BB000FFFFFFFFFFFFFFFFFFFFFFFFFFFFFFFF45
:100BC000FFFFFFFFFFFFFFFFFFFFFFFFFFFFFFFF35
:100BD000A51CDCA41CDC207822B041163542C7439A
:100BE000AE43D644664478435C44FCFFFFFFFFFFFE
:100BF000FFFFFFFFFFFFFFFFFFFFFFFFFFFFFFFF05
:100C00005D5C5F00401BDCB4D0B7F0D484F18BB6E0
:100C100027E95D48770A223A5D2827EC5D4827EDF1
:100C20005D4827EE5D4827EF5D485D5C7408401B1A
:100C3000DCB4D0B7F0D484F18BB65D005DB727A3E8
:100C4000E05D487734223A5D285D005DB727A3E474
:100C50005D485D005DB727A3E55D485D005DB72792
:100C6000A3E65D485D005DB727A3E75D485D5C7462
:100C700032401B204E5E005D005D285DB7A3B55D70
:100C80005C22465D28A55D4822305D28223A5D2819
:100C9000A5B0D0B15D535D005D285DB7A3B45D0024
:100CA0005D285DB7A4B258D671945D5C401B5D5C55
:100CB00058E2200022465D28A05D4822305D2822AF
:100CC0003A5D285FFEA3B5A25D48A55D4871C35D8E
:100CD0005C70B4401B5D5C2400A558EE200022002F
:100CE00058D671E070E058E275D9F058EE401BA27A
:100CF0001CFCF1DD9314FDF1DA9314FDC0C1FFFF7C
:100D00002C0C19022E0C7F06190DF14D10FA000063
:100D1000F6007D08B32C0C191CF14D1FFA0000F6EB
:100D2000007D17B21927C1C02EC02F2C0BA3F1F5DF
:100D30000000000000E1F67D302C0BA2FA0000E17B
:100D40002E0E7F42F67D3FC02230F1FB1A5062F238
:100D5000B34D28595B22205D2859A5C0595B220D4F
:100D60005D28220A5D2859A5C0220D4D28220A4D72
:100D700028D0FD2E402FA2E1D0FD2E802FA3E1D060
:100D8000FDC0D0FD2EC02FD1E1D0FDC02E305DD0F2
:100D90001A992E3A5DD01299C1C02E415DD012A190
:100DA000C02E5B5DD012A8C12E615DD012AFC02EE7
:100DB0007B5DD012B6C1C0F0D39214C0F0D983B31A
:100DC000F0B2C0F0A09214C9C1F0A19314CFC1C079
:100DD000F0A29E14D6C1F0A39F14DCC1C0A2F1946E
:100DE0001CE8A3F1951CE8C0C1A4F19E1CF4A5F178
:100DF0009F1CF4C0C1A31CFCA21CFCC0C1FFFFFFD0
:100E00005943595B32A21C0BA314125D2871046074
:100E10004E0459A5598BC00D496E74656C204D4325
:100E2000532D34202834303034290D0A54696E791A
:100E3000204D6F6E69746F720D0A001B401F020017
:100E40002042414E4B3D0020434849503D00204147
:100E500044523D000D0A56544C2D34303034204954
:100E60006E74657270726574657220566572203199
:100E70002E300D0A000D0A4F4B0D0A004552524FFD
:100E8000523D004255463D0053503D00494E2023FF
:100E9000000D0A763D56544C2C20722F773D52445B
:100EA0002F57522052414D2C20522F572F432F4263
:100EB0003D52442F57522F434C522F424E4B2050FD
:100EC0004D2C206C2F4C3D72642F7772204C4D2C92
:100ED00020673D676F20504D28463030290D0A00AD
:100EE00032C0C0EF99F0886B62C589F563C58AF599
:100EF00064C58BF565C58CF58CAF14D0010E886F79
:100F000089C528F58AC529F58BC52AF58CC52BF529
:100F1000A9EC99F028C589F529C58AF52AC58BF56C
:100F20002BC58CF5000E8E6F000E8D6FCCC578F53D
:100F3000CDC579F58851D8B40DD08851D8A404D046
:100F4000000E6E6F2B0E03D0000E6E6F2D0E6D6FA8
:100F50006DC588F589C528F58AC529F58BC52AF59B
:100F60008CC52BF5FBEC96F028042910D8A42BD0C7
:100F700005018851D8B40AD0610023F608F5780736
:100F8000D8A07907000E8E6F010E8D6F080E8D258B
:100F9000286E350E8E21296EEC0E2A6E8FEC99F09C
:100FA000FD0E7827FF0E792360C539F561C53AF546
:100FB000080E3B6E350E3C6E78C53DF579C53EF5A5
:100FC000AAEC98F0120089C528F58AC529F58BC5C9
:100FD0002AF58CC52BF5FBEC96F028502910D8A4E7
:100FE00019D005018851D8B40AD0610023F608F55C
:100FF0007807D8A07907000E8E6F010E8D6F080E4E
:101000008D25286E350E8E21296EF00E2A6E8FECFE
:1010100099F0C6D7000E05018F6F000E906F800EFD
:10102000916F3F0E926F000E776F000E766F89C53D
:1010300028F58AC529F58BC52AF58CC52BF5000E38
:101040002C6E000E2D6E000E2E6E000E2F6E65ECB7
:1010500098F0D8A00CD0BED07AC58FF57BC590F59E
:101060007CC591F57DC592F50501764B772B8FC533
:1010700036F590C537F591C538F592C539F5000EAE
:101080003A6E000E3B6E200E3C6E410E3D6EA4EC9F
:101090008DF036C57AF537C57BF538C57CF539C591
:1010A0007DF505017A51895D286E7B518A59296E3B
:1010B0007C518B592A6E7D518C592B6EE6EC98F041
:1010C0002BBECAD72B502A10291004E1020E285C2F
:1010D000D8A0C2D77AC54FF57BC550F57CC551F570
:1010E0007DC552F589C553F58AC554F58BC555F5AF
:1010F0008CC556F593EC96F0D8A0AED705018F516C
:10110000895D286E90518A59296E91518B592A6EAA
:1011100092518C592B6EE6EC98F02BBE08D02B50D8
:101120002A10291043E1020E285CD8B03FD08FC5A9
:1011300089F590C58AF591C58BF592C58CF54AD095
:101140008FC536F590C537F591C538F592C539F597
:10115000000E3A6E000E3B6E200E3C6E410E3D6E50
:101160006CEC93F036C58FF537C590F538C591F521
:1011700039C592F505017607D8A077078F51895DAB
:10118000286E90518A59296E91518B592A6E92512D
:101190008C592B6EE6EC98F02BBEC9D72B502A1039
:1011A000291004E1020E285CD8A0C1D789C54FF5EB
:1011B0008AC550F58BC551F58CC552F58FC553F5D1
:1011C00090C554F591C555F592C556F593EC96F03A
:1011D000D8A0B6D766C570F570C571F50501CFBF4B
:1011E00005D0CEC569F5CFC56AF504D0000E6A6F8B
:1011F000060E696F69C574F56AC575F5744B752B74
:10120000660E7119D8A416D077AF0CD0000E8F6F70
:10121000000E906F800E916F3F0E926F000E776FF1
:10122000000E766F670E7019D8B404D0765174270B
:1012300077517523000E876F000E866F89C57EF586
:101240008AC57FF58BC580F58CC581F58FC57AF58C
:1012500090C57BF591C57CF592C57DF57BD07EC5AB
:1012600036F57FC537F580C538F581C539F58FC5A9
:101270003AF590C53BF591C53CF592C53DF56CEC52
:1012800093F036C54FF537C550F538C551F539C51A
:1012900052F5AFEC94F04FC582F550C583F551C5BA
:1012A00084F552C585F582C528F583C529F584C521
:1012B0002AF585C52BF561EC97F028C572F529C58F
:1012C00073F57EC54FF57FC550F580C551F581C5D5
:1012D00052F582C53AF583C53BF584C53CF585C515
:1012E0003DF58FC536F590C537F591C538F592C5F2
:1012F00039F5A4EC8DF036C553F537C554F538C52E
:1013000055F539C556F52EEC99F04FC57EF550C50B
:101310007FF551C580F552C581F58FC536F590C56D
:1013200037F591C538F592C539F5000E3A6E000EC5
:101330003B6E200E3C6E410E3D6E6CEC93F036C55C
:101340008FF537C590F538C591F539C592F505018A
:10135000864B872B7451865D8751800A5B6E755171
:10136000800A5B58D8A07BD78FC536F590C537F576
:1013700091C538F592C539F5000E3A6E000E3B6EF8
:10138000A00E3C6E400E3D6EA4EC8DF036C582F58D
:1013900037C583F538C584F539C585F57EC54FF564
:1013A0007FC550F580C551F581C552F582C553F50D
:1013B00083C554F584C555F585C556F593EC96F06F
:1013C000D8B003D0000E050118D07EC528F57FC522
:1013D00029F580C52AF581C52BF582C52CF583C575
:1013E0002DF584C52EF585C52FF565EC98F0D8A0B0
:1013F0000BD0050172B108D0000E826F000E836F12
:10140000000E846F000E856F89C528F58AC529F501
:101410008BC52AF58CC52BF582C52CF583C52DF51A
:1014200084C52EF585C52FF538EC8FF028C57EF5DF
:1014300029C57FF52AC580F52BC581F57EC54FF5F9
:101440007FC550F580C551F581C552F5000E3A6E45
:10145000000E3B6E200E3C6E410E3D6E7AC536F599
:101460007BC537F57CC538F57DC539F5A4EC8DF025
:1014700036C553F537C554F538C555F539C556F554
:1014800093EC96F0D8A024D00501764B772B7AC543
:1014900036F57BC537F57CC538F57DC539F5000EC9
:1014A0003A6E000E3B6E200E3C6E410E3D6EA4EC7B
:1014B0008DF036C57AF537C57BF538C57CF539C56D
:1014C0007DF5660E05017119D8A402D0744B752BF9
:1014D0007AC58FF57BC590F57CC591F57DC592F5F4
:1014E00076C567F577C568F505016F6B000E6C6F03
:1014F000000E6B6F000E876F000E866FCDD07EC51D
:1015000036F57FC537F580C538F581C539F58FC506
:101510003AF590C53BF591C53CF592C53DF56CECAF
:1015200093F036C54FF537C550F538C551F539C577
:1015300052F5AFEC94F04FC582F550C583F551C517
:1015400084F552C585F582C528F583C529F584C57E
:101550002AF585C52BF561EC97F029BE06D02950F8
:1015600013E10A0E285CD8B00FD082C528F583C5D8
:1015700029F584C52AF585C52BF561EC97F028C5BA
:1015800072F529C573F505D0000E0501736F090EBC
:10159000726F05016F51D8B468AF20D0080E8D2549
:1015A000D96E350E8E21DA6E2E0EDF6E8D4B8E2BA0
:1015B0007807D8A07907010E6F6F10D0080E8D251F
:1015C000D96E350E8E21DA6E300EDF6E8D4B8E2B7E
:1015D0007807D8A079076B07D8A06C076B516C11FE
:1015E000D8A4ECD7080E8D25D96E350E8E21DA6E73
:1015F0007251300FDF6E8D4B8E2B7807D8A0790794
:101600007EC54FF57FC550F580C551F581C552F5B2
:1016100082C53AF583C53BF584C53CF585C53DF5E6
:101620008FC536F590C537F591C538F592C539F5B2
:10163000A4EC8DF036C553F537C554F538C555F5CE
:1016400039C556F52EEC99F04FC57EF550C57FF59E
:1016500051C580F552C581F58FC536F590C537F572
:1016600091C538F592C539F5000E3A6E000E3B6E05
:10167000200E3C6E410E3D6E6CEC93F036C58FF53E
:1016800037C590F538C591F539C592F5050167075D
:10169000D8A06807864B872B7451865D8751800AD6
:1016A0005B6E7551800A5B58D8B008D08EBF27D7C3
:1016B0008E5104E14B0E8D5DD8A021D7000E876FAF
:1016C0004F0E866F080E8625D96E350E8721DA6E8D
:1016D000DF6A080E5B6E350E5C6E8D515B5E8E515F
:1016E0005C5A86515B24286E87515C20296E080E57
:1016F0002A6E350E2B6E8DC52CF58EC52DF551EC51
:1017000099F08D51865D8D6F8E5187598E6F8851FE
:10171000D8B402D0010E01D0000E866F876BD4B30F
:101720000FD022D08D07D8A08E07080E8D25D96E38
:10173000350E8E21DA6E300EDF6E7807D8A079076D
:101740007851865D8751800A5B6E7951800A5B58BB
:10175000D8B00AD08D51865D8751800A5B6E8E515C
:10176000800A5B58D8A0DED78851D8B40BD08D073B
:10177000D8A08E07080E8D25D96E350E8E21DA6E13
:1017800088C5DFF48651785F8751795B60C539F58C
:1017900061C53AF5080E8D253B6E350E8E213C6EE7
:1017A00078C53DF579C53EF5AAEC98F01200080E13
:1017B0000001B16F0401006BBE68BF0EC66E016907
:1017C000086BC7680969106BC068FE0EC86E1169A6
:1017D000186BE30EC16EE30EC96E1969C16A206B06
:1017E000CA6821691897C9961C0E02011C6F040172
:1017F0001895C9941A0E02011B6F876A786A020E47
:101800007F6E020E706E866A776A886A796A000E49
:10181000826E560E816E81C472F482C473F4000E1F
:101820008A6E190E896E89C47AF48AC47BF4840E98
:10183000876E0000000000000000000000000000B3
:101840000000000000000000840E786E010E02010E
:10185000D56FA00ED46FD189D18B0401009FC68EA5
:10186000070E0201766F0401009DBE8CC69C260EF9
:101870000201076FD28F000E366E000E376E7A0EA1
:10188000386E470E396E010E81240501BA6F000EC5
:101890008220BB6FBAC528F5BBC529F52A6A2B6A19
:1018A000000E83EC95F028C53AF529C53BF52AC50D
:1018B0003CF52BC53DF56CEC93F036C5BCF537C552
:1018C000BDF538C5BEF539C5BFF5CB0E0501A56F11
:1018D000BCC5A6F5BDC5A7F5BEC5A8F5BFC5A9F58C
:1018E000D6EC99F089C428F58AC429F52A6A2B6AAE
:1018F000000E83EC95F028C536F529C537F52AC5C5
:1019000038F52BC539F5000E3A6E000E3B6E7A0E97
:101910003C6E410E3D6EA4EC8DF036C5C0F537C56A
:10192000C1F538C5C2F539C5C3F5810E0501A56FEE
:10193000C0C5A6F5C1C5A7F5C2C5A8F5C3C5A9F51B
:10194000D6EC99F07AC428F57BC429F52A6A2B6A6B
:10195000000E83EC95F028C536F529C537F52AC564
:1019600038F52BC539F5000E3A6E000E3B6E7A0E37
:101970003C6E410E3D6EA4EC8DF036C5C0F537C50A
:10198000C1F538C5C2F539C5C3F5590E0501A56FB6
:10199000C0C5A6F5C1C5A7F5C2C5A8F5C3C5A9F5BB
:1019A000D6EC99F0A80EA56FD6EC99F0010EA56FB4
:1019B000D6EC99F0110E0201616F020E0001D56F95
:1019C000D86B7F0ED96F7F0EDA6F7F0EDB6F010E43
:1019D000DC6F100EDD6F100EDE6F400EDF6FD76B09
:1019E000820ED66FD190C990030E0201196F550E69
:1019F0000401596FAA0E596F5991080E5D6F000EC0
:101A00005E6F000E5F6F550E596FAA0E596F5981A8
:101A1000000E0501D36F000ED26F000ED225F66EB8
:101A2000000ED321F76EF86A010EF822000ED225BF
:101A3000D96E060ED321DA6E0800F5C4DFF4D24B5E
:101A4000D32BE20ED25D0E0ED359D8A0E6D7000EEE
:101A5000D36F000ED26F000ED225D96E350ED32172
:101A6000DA6EDF6AD24BD32BD35104E1080ED25D7C
:101A7000D8A0F1D70E6A0F0E156E006A016A026ACD
:101A8000036A046A056A010E0B6E0C6AD0B6FED7B3
:101A9000D0A6FED7D1A4FED7D1B4FED7AE9E040106
:101AA00015879E8ED68EC188F40E0501A56FD6ECE3
:101AB00099F0000ED36F000ED26F000ED16F000EA2
:101AC000D06F12C520F513C521F5081C246E1450E3
:101AD0001F0B266E0DC525F50BC527F52E0E05012E
:101AE000A56F20C5A6F521C5A7F524C5A8F5A96B46
:101AF00026C5AAF5AB6B27C5ACF5AD6B25C5AEF514
:101B0000AF6B03C5B0F5B16B02C5B2F5B36B01C5E0
:101B1000B4F5B56B00C5B6F5B76BD6EC99F0D04B04
:101B2000D12BD15104E1040ED05DD8A0CAD7A50EA7
:101B3000A56FD6EC99F0D24BD32BD351B5E1170E4C
:101B4000D25DD8B0B1D7B9D73950800B426E395079
:101B50003924486E38BE48804850D8B40DD0482843
:101B6000D8A408D0000E366E000E376E000E386E08
:101B7000000E396E388E08D0000E366E000E376EAD
:101B8000000E386E000E396E3D50800B421A3D50EB
:101B90003D24436E3CBE43804350D8B40DD043280F
:101BA000D8A408D0000E3A6E000E3B6E000E3C6EBC
:101BB000000E3D6E3C8E08D0000E3A6E000E3B6E5D
:101BC000000E3C6E000E3D6E4350D8B403D048501A
:101BD000D8A409D0000E366E000E376E000E386E97
:101BE000000E396E12003C503602F3C44DF5F4C4B9
:101BF0004EF54D50446E456A466A476A4E50496EEE
:101C00004A6A4B6A4C6A3B503702F3C44DF5F4C440
:101C10004EF54D504426000E4522462247224E5096
:101C20004926000E4A224B224C223A503802F3C475
:101C30004DF5F4C44EF54D504426000E4522462283
:101C400047224E504926000E4A224B224C2246C5BE
:101C500047F545C546F544C545F5446A3A5037024F
:101C6000F3C44DF5F4C44EF54D5044264E50452274
:101C7000000E4622000E47223B503602F3C44DF5BB
:101C8000F4C44EF54D5044264E504522000E4622D7
:101C9000000E472246C547F545C546F544C545F5FE
:101CA000446A3A503602F3C44DF5F4C44EF54D5033
:101CB00044264E504522000E4622000E47223C503C
:101CC0003702F3C44DF5F4C44EF54D5049264E503D
:101CD0004A22000E4B22000E4C223B503802F3C425
:101CE0004DF5F4C44EF54D5049264E504A22000E93
:101CF0004B22000E4C223C503802F3C44DF5F4C484
:101D00004EF54D503E6E4E503F6E406A416A40C5A2
:101D100041F53FC540F53EC53FF53E6A3E50492678
:101D20003F504A2240504B2241504C2247504926B6
:101D3000000E4A224B224C2246C547F545C546F5C2
:101D400044C545F5446A435048C53EF53F6A3E26C2
:101D5000000E3F22820E3E244D6EFF0E3F204E6E3F
:101D60000FD0D89049364A364B364C3647BE49805C
:101D7000D89044364536463647364D06D8A04E06EE
:101D80004BAEEFD7436A47AE17D0FF0E44143E6EFA
:101D9000FF0E45143F6EFF0E4614406E7F0E471433
:101DA000416E3E503F1040104110D8B403D0010E98
:101DB000436E02D049B0FBD74350D8B41FD0010EB8
:101DC0004926000E4A224B224C224CA017D049C56E
:101DD0003EF54AC53FF54BC540F54CC541F541348C
:101DE000413240323F323E323EC549F53FC54AF5A9
:101DF00040C54BF541C54CF54D4A4E2A4EBE0DD05F
:101E00004E5003E14D28D8A008D0000E496E000EB8
:101E10004A6E800E4B6E7F0E1FD04EBE05D04E50C8
:101E20000DE14D04D8B00AD0000E496E000E4A6E86
:101E3000000E4B6E000E4C6E426A0FD04DC548F539
:101E4000FF0E4916FF0E4A167F0E4B16000E4C165B
:101E500048B04B8ED89048304C6E42504C1249C519
:101E600036F54AC537F54BC538F54CC539F512007E
:101E70002B50800B346E2B502B24366E2ABE3680AE
:101E80003650D8B40ED03628D8A408D0000E286E0C
:101E9000000E296E000E2A6E000E2B6E2A8E2B6A03
:101EA00008D0000E286E000E296E000E2A6E000E5D
:101EB0002B6E2F50800B356E34503518D8A4348CCF
:101EC0002F502F24356E2EBE35803550D8B40ED00D
:101ED0003528D8A408D0000E2C6E000E2D6E000EF2
:101EE0002E6E000E2F6E2E8E2F6A08D0000E2C6ED6
:101EF000000E2D6E000E2E6E000E2F6E3650355CCD
:101F0000D8B022D034AC02D0800E341A36C537F5A2
:101F100035C536F537C535F528C537F52CC528F54F
:101F200037C52CF529C537F52DC529F537C52DF54C
:101F30002AC537F52EC52AF537C52EF52BC537F539
:101F40002FC52BF537C52FF5376A365035C530F517
:101F5000316A305E000E315A31BE2CD0315004E16E
:101F60001A0E305CD8A026D0285029102A102B1029
:101F7000D8B402D0010E01D0000E376E000E286ECC
:101F8000000E296E000E2A6E000E2B6E35C536F53A
:101F900015D037A005D0D89037300109376E02D060
:101FA000D890373228B0378E2B342B322A32293250
:101FB0002832362A3550365CD8A0EBD734BC28D02E
:101FC0003650D8A409D0000E286E000E296E000EDF
:101FD0002A6E000E2B6E12002C5028262D5029221E
:101FE0002E502A222F502B222BA071D037A005D0A3
:101FF000D89037300109376E02D0D890373228B0E8
:10200000378E2B342B322A3229322832362A5FD0AF
:102010002C50285C2D5029582E502A582B50800ABD
:10202000306E2F50800A3058D8B025D028502C5C04
:10203000306E29502D58316E2A502E58326E2B504A
:102040002F58336EFF0E3024286EFF0E3120296E7C
:10205000FF0E32202A6EFF0E33202B6E800E341AB4
:10206000376C3750D8A40FD0010E2826000E292235
:102070002A222B2208D02C50285E2D50295A2E506F
:102080002A5A2F502B5A285029102A102B10D8A426
:102090001CD03750D8A419D0000E286E000E296E1F
:1020A000000E2A6E000E2B6E1200D89028362936AC
:1020B0002A362B3637BE288037A002D0D88001D0F0
:1020C000D89037363650D8A436062AAEEED7356AC1
:1020D00037AE0BD037C530F57F0E3016D8B403D0ED
:1020E000010E356E02D028B0FBD73550D8B420D0C1
:1020F000010E2826000E29222A222B222BA018D0DE
:1021000028C530F529C531F52AC532F52BC533F57B
:102110003334333232323132303230C528F531C5C2
:1021200029F532C52AF533C52BF53628D8A4362A29
:102130003628D8B403D03650D8A40BD0000E286E61
:10214000000E296E000E2A6E000E2B6E3650D8B48B
:10215000346A36A002D02A8E01D02A9ED89036301A
:102160002B6E34BE2B8E28C528F529C529F52AC526
:102170002AF52BC52BF512000401176BD1A4FED74D
:10218000CE1C0F0BE96E116ED1B4FED7D1A4FED7D1
:10219000CE1C0F0BE838E926E9C412F50000000058
:1021A00000000000CE1C0F0B136E15640024060FF8
:1021B000EA6EEF1C086EE838076EBE6ED01CF00B9E
:1021C000E8380B6EE840070B0C6E00000000B00E04
:1021D000C66E081C0F0B096E030B0A6E0CC5E9F4E2
:1021E000350EEA6EEFC40DF5CF1C020B066E000033
:1021F00008C5BEF4000000000000CFB2D0D009A690
:1022000041D00000000000000000000000000000BD
:102210000000BF0EC66E000000000950E8B429D0CF
:102220000A0A20E1CE1C146E0DAE05D00EA006D019
:102230000F380E9007D0B71C0E6A04D00201C71DDC
:102240000F6E0E80BE6ED1A4FED7CE1C146ED1B41C
:10225000FED7B00EC66ED1A4FED7D1B4FED7BF0E46
:10226000C66E11000DC5E9F40C50250FEA6EEF1C87
:10227000E9D70D50F00B0A24E96E0C502D0FEA6ED1
:10228000EF1CE0D70000000000000000000000008C
:102290000000BF0EC66E095060E0E8B46ED0010ABF
:1022A00020E0030A43E0D1A4FED7CE1C146ED1B4C3
:1022B000FED70DC5E9F40050150FEA6E045009E091
:1022C000EF500F0BEF6ECE1CE838F00BEF26046AD0
:1022D0001100EF50F00BEF6ECE1C0F0BEF260468D1
:1022E0001100D1A4FED7CE1C146ED1B4FED70D5070
:1022F000C00B0FE0C00A11E0800A03E0400A05E0CD
:102300001100CE1C0F0B016E1100CE1C0F0B026EC4
:102310001100CE1C0F0B006E1100CE1C0F0B036EB4
:10232000E8A002D0C0801100C0901100D1A4FED757
:10233000CE1C146ED1B4FED70DAE11000EA208D083
:10234000CE1C0F0BE83810100201C96F0E9211005D
:10235000CE1C0F0B106E0E821100D1A4FED7CE1C26
:10236000146ED1B4FED70DC5E9F40C50250FEA6EFA
:10237000D1A4FED7CE1CEF6E1100D1A4FED7CE1C87
:10238000146ED1B4FED70D50F00B0A24E96E0C5038
:102390002D0FEA6ED1A4FED7CE1CEF6E11000650B1
:1023A0001FE0081C0E0A0BE00C0A01E01FD0000021
:1023B00000000000BF0EC66ED1B4FED724D00000CE
:1023C00000000000BF0EC66ED1B4FED70DC5E9F403
:1023D0000050150FEA6EEF1C05B0E838051E32D725
:1023E000000000000000000000000000BF0EC66EEC
:1023F000D1B4FED7081CF10B210A05E0D1A4FED709
:10240000CE1C146E1100D1A4FED7CE1C146ED1B414
:10241000FED70000000000000000CFB21100CE1C6B
:102420000F0BE8380D6ED1A4FED7D1B4FED7000053
:10243000000000000000CE1C0F0B0D120CC5E9F4CB
:10244000350EEA6E0DC5EFF4110095C5D9F496C5A9
:10245000DAF4DFC4F6F4400EF76E000EF86E0800F2
:10246000F550250AD8A423D195C5D9F496C5DAF438
:10247000DF2A000ECD6F000ECC6FCCC5D4F5CE692F
:10248000CF69996B1AD0D48395C5D9F496C5DAF47F
:10249000DF2A13D0010E996F10D095C5D9F496C5D7
:1024A000DAF4DFC4F6F4400EF76E000EF86E0800A2
:1024B000F550300AD8B4E7D7EDD79951D8B4EDD755
:1024C00095C528F596C529F597C52AF598C52BF524
:1024D000BEEC97F028C5CCF529C5CDF5CDAF05D01C
:1024E000D481CC6DCD1FD8B0CD2B95C5D9F496C570
:1024F000DAF4DFC4F6F4400EF76E000EF86E080052
:10250000F5502E0AD8A413D095C5D9F496C5DAF49F
:10251000DF2A95C528F596C529F597C52AF598C5EA
:102520002BF5BEEC97F028C5CEF529C5CFF595C59E
:10253000D9F496C5DAF4DF509F6F9FC5F6F4400ECC
:10254000F76E000EF86E0800F550580AD8A431D086
:1025500097C5D9F498C5DAF4DFC45DF5020EDE261E
:10256000DFC45EF5000EDD225DC5D9F45EC5DAF488
:10257000DEC49AF5DDC49BF59F2995C5D9F496C5AF
:10258000DAF4DF6E0BD093C542F594C543F59AC5D6
:1025900044F59BC545F523EC96F012009FC5F6F473
:1025A000400EF76E000EF86E0800F550580AD8B4C9
:1025B000EAD795C5D9F496C5DAF4DF509F6F9FC569
:1025C000F6F4400EF76E000EF86E0800F5C49EF5A6
:1025D00007D09F2B10D06C0E9E6F0DD09E6B0BD032
:1025E0009E514C0AD8B4F5D72A0AD8B4F4D70A0AAF
:1025F000D8B4EFD7F3D79FC5F6F4400EF76E000EB0
:10260000F86E0800F550660AD8B41AD04AD097C5BB
:10261000D9F498C5DAF4DFC45DF5040EDE26DFC414
:102620005EF5000EDD225DC5D9F45EC5DAF4DEC4C8
:102630009AF5DEC49BF5DEC49CF5DEC49DF507D09B
:102640009E514C0AD8B4E3D7200AD8B4E0D79F29CA
:1026500095C5D9F496C5DAF4DF6E18D093C560F548
:1026600094C561F59AC562F59BC563F59CC564F593
:102670009DC565F59FC5F6F4400EF76E000EF86E29
:102680000800F5C466F573EC87F012009FC5F6F4F8
:10269000400EF76E000EF86E0800F550660AD8B4CA
:1026A000DDD795C5D9F496C5DAF4DF2A120095C5B1
:1026B000D9F496C5DAF4DFC4F6F4400EF76E000ED6
:1026C000F86E0800F550296E2A6A93C52BF594C55B
:1026D0002CF515EC98F0E5D73950800B466E395043
:1026E00039244D6E38BE4D804D50D8B40ED04D2893
:1026F000D8A408D0000E366E000E376E000E386E6D
:10270000000E396E388E396A08D0000E366E000E13
:10271000376E000E386E000E396E3D50800B461A33
:102720003D503D244E6E3CBE4E804E50D8B40ED02F
:102730004E28D8A408D0000E3A6E000E3B6E000E54
:102740003C6E000E3D6E3C8E3D6A08D0000E3A6E27
:10275000000E3B6E000E3C6E000E3D6E3A503B107C
:102760003C103D10D8A417D0000E366E000E376E08
:10277000000E386E000E396E800E38127F0E391240
:102780004650391236C536F537C537F538C538F5F0
:1027900039C539F512004D50D8A409D0000E366E57
:1027A000000E376E000E386E000E396E12004E505D
:1027B0004DC53EF53F6A3E5E000E3F5A7F0E3E24F9
:1027C000476E000E3F20486E36C542F537C543F5CB
:1027D00038C544F539C545F5000E366E000E376E26
:1027E000000E386E000E396E000E496E000E4A6EF5
:1027F000000E4B6E000E4C6E4E6A28D04E50D8B470
:1028000011D0D8904236433644364536D8903636C5
:102810003736383639364CBE3680D89049364A3647
:102820004B364C363A50425C3B5043583C5044582F
:102830003D504558D8A009D04C8C3A50425E3B5090
:10284000435A3C50445A3D50455A4E2A190E4E6444
:10285000D5D74250431044104510D8B411D0498008
:102860000FD0D89036363736383639364CBE3680AB
:10287000D89049364A364B364C364706D8A04806DB
:1028800038AEEFD74E6A4CAE17D0FF0E49143E6EED
:10289000FF0E4A143F6EFF0E4B14406E7F0E4C1419
:1028A000416E3E503F1040104110D8B403D0010E8D
:1028B0004E6E02D036B0FBD74E50D8B41FD0010EAA
:1028C0003626000E37223822392239A017D036C5D5
:1028D0003EF537C53FF538C540F539C541F54134BA
:1028E000413240323F323E323EC536F53FC537F5C4
:1028F00040C538F541C539F5474A482A48BE10D089
:10290000485003E14728D8A00BD0000E486E476816
:10291000000E366E000E376E000E386E000E396EE9
:1029200048BE05D0485010E14704D8B00DD0000E85
:10293000486E000E476E000E366E000E376E000EAB
:10294000386E000E396E466A47C54DF54DA002D06F
:10295000388E01D0389ED8904D30396E11D7C4C50D
:102960001CF5C5C51DF5C6C51EF5C7C51FF54FC568
:102970001CF550C51DF551C51EF552C51FF5810E3C
:10298000536EFF0E546E1CC555F51DC556F51EC57C
:1029900057F51FC558F5180E05D0D8905832573244
:1029A00056325532E82EF9D7555053241A6E000E80
:1029B00054201B6E1BBE0FD01B5004E1170E1A5C77
:1029C000D8A009D04FC54FF550C550F551C551F5A8
:1029D00052C552F512001BBE5BD01AC553F5FF0E4F
:1029E000546EFF0E556E7F0E566E000E576E536678
:1029F00001D007D057345732563255325432532E05
:102A0000F6D754C516F555C517F556C518F557C56B
:102A100019F516501C14536E17501D14546E18508F
:102A20001E14556E19501F14566E535054105510E5
:102A30005610D8B4C7D71CC553F51DC554F51EC5CF
:102A400055F51FC556F5200E05D0D8905632553293
:102A500054325332E82EF9D75350D8B408D0165018
:102A60001C2617501D2218501E2219501F22161CFA
:102A7000536E171C546E181C556E191C566E53500D
:102A80001C1654501D1655501E1656501F1632D087
:102A90001CC553F51DC554F51EC555F51FC556F586
:102AA000200E05D0D8905632553254325332E82E8B
:102AB000F9D7536608D0000E1C6E000E1D6E000E76
:102AC0001E6E000E16D0D8901C34536E1D34546EFA
:102AD0001E34556E1F34566E5350541055105610F8
:102AE000D8B408D0000E1C6E000E1D6E800E1E6E37
:102AF000BF0E1F6E1CC54FF51DC550F51EC551F507
:102B00001FC552F51200306E3050D8A42BAE1AD02B
:102B100028C52CF529C52DF52AC52EF52BC52FF571
:102B20002C1E2D1E2E1E2F1E2C2A000E2D222E2274
:102B30002F222CC532F52DC533F52EC534F52FC502
:102B400035F508D028C532F529C533F52AC534F541
:102B50002BC535F5285029102A102B10D8A409D0E0
:102B6000000E286E000E296E000E2A6E000E2B6ECF
:102B70001200960E316E06D0312AD890353234329A
:102B800033323232000E32142C6E000E33142D6E9E
:102B9000000E34142E6EFE0E35142F6E2C502D1098
:102BA0002E102F10D8B40DD0E7D7312A010E3226BF
:102BB000000E332234223522D8903532343233326B
:102BC0003232000E32142C6E000E33142D6E000EB5
:102BD00034142E6EFF0E35142F6E2C502D102E1027
:102BE0002F10D8B407D0E1D73106D890323633361B
:102BF0003436353634BE03D0020E3160F5D731A0FD
:102C0000349ED890313231C52CF52D6A2E6A2F6A48
:102C10002CC52FF52E6A2D6A2C6A2C5032122D509D
:102C200033122E5034122F5035123050D8A42BAE00
:102C300001D0358E32C528F533C529F534C52AF5BE
:102C400035C52BF51200CFAFD493CFAF05D0000E12
:102C50004A6E010E496E04D0CEC549F5CFC54AF57E
:102C6000CCC54BF5CDC54CF5000E4F6E4F0E4E6EDC
:102C70003501576B2AD04E06D8A04F0644500F0B93
:102C80004D6E0A0E4D6002D0300E01D0370E4D262B
:102C9000080E4E24D96E350E4F20DA6E4DC5DFF486
:102CA0004906D8A04A064B06D8A04C0644C546F5AE
:102CB00045C547F5040E486ED89047324632482E37
:102CC000FBD746C544F547C545F54FBE1BD04F5011
:102CD00004E1020E4E5CD8A015D044504510D8A493
:102CE000CAD74ABE05D04A50C6E14904D8B0C3D7B6
:102CF0004CBE08D04C5003E14B04D8A003D00501D2
:102D0000D4B3B9D742C539F543C53AF5080E4E24B8
:102D10003B6E350E4F203C6E4BC53DF54CC53EF528
:102D2000AAEC98F01200000E4F14576E000E5014CB
:102D3000586E800E5114596E7F0E52145A6E5750B1
:102D4000581059105A10D8A408D0000E4F6E000E1B
:102D5000506E000E516E000E526E000E5314576EE0
:102D6000000E5414586E800E5514596E7F0E561472
:102D70005A6E5750581059105A10D8A408D0000E47
:102D8000536E000E546E000E556E000E566E52AE0F
:102D900009D04F6C501ED8B0502A511ED8B0512ABD
:102DA000800E525656AE09D0536C541ED8B0542AD9
:102DB000551ED8B0552A800E5656000E4F1A000EDA
:102DC000501A000E511A800E521A000E531A000E9D
:102DD000541A000E551A800E561A53504F5C545018
:102DE00050585550515856505258D8B002D0D890DB
:102DF0001200D8801200C8C532F5C9C533F5CAC55E
:102E000034F5CBC535F528C532F529C533F52AC5C6
:102E100034F52BC535F532C52CF533C52DF534C544
:102E20002EF535C52FF5180E05D0D8902F322E323D
:102E30002D322C32E82EF9D72C50306E316A3050BA
:102E40003110D8A419D0D89032342C6E33342D6E72
:102E500034342E6E35342F6E2C502D102E102F1032
:102E6000D8A405D0000E296E020E286E1200000EA6
:102E7000296E030E286E120030283110D8A41CD001
:102E800032C52CF533C52DF534C52EF535C52FF5D6
:102E9000090ED8902C362D362E362F36E82EF9D73F
:102EA0002C502D102E102F10D8A402D0010E01D0BE
:102EB000000E286E296A1200000E296E040E286E7C
:102EC00012002A342B34316E3150D8A409D0000EB0
:102ED000286E000E296E000E2A6E000E2B6E120058
:102EE00028C52CF529C52DF52AC52EF52BC52FF59E
:102EF000200E05D0D8902F322E322D322C32E82ED3
:102F0000F9D72C50306E2A8EFF0E2816FF0E291688
:102F1000FF0E2A16000E2B16960E315E31AE0DD026
:102F20003150800A970FD8A0D2D7D8902B322A32AE
:102F300029322832313EF9D70DD01F0E316407D027
:102F4000C6D7D890283629362A362B363106315046
:102F5000D8A4F7D73050D8B408D02B1E2A1E291E6B
:102F6000286C000E29222A222B2228C528F529C5E3
:102F700029F52AC52AF52BC52BF51200000E306E57
:102F8000000E2F6E28C5D9F429C5DAF4DFC4F6F493
:102F9000400EF76E000EF86E0800F5502A0AD8A40D
:102FA0002ED028C5D9F429C5DAF4DF2A2AC5D9F4E8
:102FB0002BC5DAF4DFC42CF5020EDE26DFC42DF5B6
:102FC000000EDD222CC5D9F42DC5DAF4DEC42FF5B0
:102FD000DDC430F525D00A0E2F02F3C42CF5F4C45D
:102FE0002DF53002F3502D262E502C242F6E000E7E
:102FF0002D20306E28C5D9F429C5DAF4DF2A28C57A
:10300000D9F429C5DAF4DFC4F6F4400EF76E000EE9
:10301000F86E0800F550D00F2E6E090E2E64DBD727
:103020002FC528F530C529F512002B502C10D8B427
:1030300004D02B502C10D8A404D02950E7EC99F0E0
:10304000120020EE09F02B50D9262C50DA22DE5047
:10305000DE10D8B416D020EE09F02B50D9262C5013
:10306000DA2210EE02F02B50E1262C50E222DE5044
:10307000E65CE650800A316EDE50800A3158D8B0E6
:10308000120020EE02F02B50D9262C50DA22DEC49A
:103090002DF5DDC42EF52BC5D9F42CC5DAF4DEC42C
:1030A0002FF5DDC430F52D502F24D96E2E50302051
:1030B000DA6E29C5DFF420EE02F02B50D9262C5011
:1030C000DA22DE2A000EDD221200000E2814306EF5
:1030D000000E2914316E800E2A14326E7F0E2B14CE
:1030E000336E3050311032103310D8A408D0000E97
:1030F000286E000E296E000E2A6E000E2B6E000E3A
:103100002C14306E000E2D14316E800E2E14326E83
:103110007F0E2F14336E3050311032103310D8A47C
:1031200008D0000E2C6E000E2D6E000E2E6E000EBE
:103130002F6E2C5028180AE12D50291807E12E5027
:103140002A1804E12F502B18D8B402D0D8901200BE
:10315000D88012000501D4A10AD03BC532F53CC588
:1031600033F539C534F53AC535F573EC99F03EAE13
:1031700004D0000E3E6E000E3D6E000E416E000E3D
:10318000406E0CD0000E2A6E200E296E39C52BF52C
:103190003AC52CF515EC98F0404A412A3D50405C68
:1031A0004150800A3F6E3E50800A3F58D8A0EAD76F
:1031B0000501D4B112003BC532F53CC533F539C524
:1031C00034F53AC535F573EC99F012002BBE09D0F1
:1031D00028C528F529C529F52AC52AF52BC52BF5BB
:1031E000120028C52CF529C52DF52AC52EF52BC5AD
:1031F0002FF52C1E2D1E2E1E2F1E2C2A000E2D22CA
:103200002E222F222CC528F52DC529F52EC52AF5ED
:103210002FC52BF51200A2C55FF50FD0A0C593F501
:10322000A1C594F55F0E0501956F050E966FA3C5B8
:1032300097F5A4C598F525EC92F05FC5F6F4400E1D
:10324000F76E000EF86E0800F5500009D8A4E6D716
:10325000000E0501A16F000EA06F1200000E531AA0
:10326000000E541A000E551A800E561A4FC528F536
:1032700050C529F551C52AF552C52BF553C52CF576
:1032800054C52DF555C52EF556C52FF538EC8FF0E4
:1032900028C54FF529C550F52AC551F52BC552F55E
:1032A00012002AC530F52BC531F528C52EF529C5E4
:1032B0002FF510D030C5D9F431C5DAF4DF50326EB5
:1032C000304A312A2EC5D9F42FC5DAF432C5DFF4DD
:1032D0002E4A2F2A2C06D8A02D062C28EBE12D28CB
:1032E000D8B41200E7D7000E386E000E376E0BD040
:1032F00036C529F52A6A34C52BF535C52CF515ECEC
:1033000098F0374A382A37503224D96E3850332053
:10331000DA6EDF50366E3650D8B41200E9D728C5C1
:103320002CF529C52DF52A2A2A042B6E2BC5F6F477
:10333000400EF76E000EF86E2CC5D9F42DC5DAF4E8
:103340002C4A2D2A0800F5C4DFF4DF50D8B412004F
:10335000EAD7285029102A102B10D8B408D0000E14
:10336000281A000E291A000E2A1A800E2B1A28C5B8
:1033700028F529C529F52AC52AF52BC52BF51200F4
:103380000DEE08F1500EEE6AE806FDE101EEC4F123
:10339000110EEE6AE806FDE10401080E5D6F000EF5
:1033A0005E6F000E5F6F0001D7EF8BF0A60EB86F57
:1033B000050EB96F000EA06F000EA16FA5C5A2F596
:1033C000B80EA36F050EA46F0BEC99F01200286ED7
:0A33D000B7A2FED728C5C9F212000B
:0233DC001100DE
:020000040030CA
:100000008C2FFFF79FFFFFFFFFFFFFFFFFFFFFFFAB
:10001000FFFFFFFFFFFFFFFFFFFFFFFFFFFFFFFFF0
:03002000FFFFFFE0
:00000001FF
