:0400000071EF87F025
:10000800F24CF24CF24CF24CF24CF24CF24C5E4890
:10001800F24CF24CF24CF24CF24CF24CF24CF24CE8
:10002800F24CF24CF24CF24CF24CF24CF24CF24CD8
:10003800F24CF24CF24CF24CF24CF24CF24CF24CC8
:10004800F24CF24CF24CF24CF24CF24CF24CF24CB8
:10005800F24CF24CF24CF24CF24CF24CF24CF24CA8
:10006800F24CF24CF24CF24CF24CF24CF24CF24C98
:10007800F24CF24CF24CF24C4200F24CF24CF24C84
:10008800F24CF24CF24CF24CF24CF24CF24CF24C78
:10009800F24CF24CF24CF24C4200F24CF24CF24C64
:1000A800F24CF24CF24CF24CF24CF24CF24CF24C58
:1000B800F24CF24CF24CF24CF24CF24CF24CF24C48
:1000C800F24CF24CF24CF24CF24CF24CF24CF24C38
:1000D800F24CF24CF24CF24CF24CF24CF24CF24C28
:1000E8004200F24CF24CF24CF24CF24CF24CF24C14
:1000F800F24CF24CF24CF24CF24CF24CF24CF24C08
:02010800FF00F6
:1040000000343030342F3430343020536F667477BE
:104010006172652053657269616C206F6E20616EFC
:104020006F7468657220706F72740D0A0A00202523
:104030003033582025303258202530315820253053
:104040003158253032582025303158253031582507
:104050003031582530315820200050574D32202D16
:104060003E20524432202D3E20504849322077696C
:104070006474682025332E3066206E7365630D0AE4
:104080000A0050574D33202D3E20524433202D3E00
:1040900020504849312077696474682025332E30D8
:1040A00066206E7365630D0A0050494320554152E6
:1040B0005420646973706C61792072756E6E756ED0
:1040C00067206D6F6E69746F720D0A000D0A454DA1
:1040D000553430303420636C6F636B2073706565CA
:1040E000642025332E30666B487A0D0A00696E66AF
:0A40F000006E616E001B5B480000CB
:020000040001F9
:10000000F0D0FD59395D822200A358EE58E2730901
:10001000F058EE203B5E0020175E00225D5D285DFB
:10002000005D715CEF142B5D5C401B5D2820725DF0
:10003000C31C3750874C0620775DC31C4150874C4A
:100040003020525DC31C494CAE20575DC31C514C3F
:100050007320435DC31C594CD520425DC31C6148CD
:10006000F320675DC31C694C0020765DC31C7141A1
:1000700000206C5DC31C794AD3204C5DC31C814BAE
:100080001C20915E00401B20405E005D005D285DED
:10009000B7A3BA20475E005D005D285DB7A3F1F508
:1000A000F1F5BB5D5CC02E305DD012ADC02E3A5D67
:1000B000D012B4C12E415DD012BBC02E475DD0120C
:1000C000C2C12E615DD012C9C02E675DD012D0C1F1
:1000D000C0FFFFFFFFFFFFFFFFFFFFFFFFFFFFFF6F
:1000E000FFFFFFFFFFFFFFFFFFFFFFFFFFFFFFFF20
:1000F000FFFFFFFFFFFFFFFFFFFFFFFFFFFFFFFF10
:1001000020545E0022002078565F207A565F2074CB
:100110002401260055F92078566A5DF51458207C94
:100120005E0058B0207A566A58B05D5320835E0056
:100130002000220059D955DA57EC59FC5D5C226C3D
:1001400055B9144E208C5E00226C581D5D5C220057
:100150002078565F207A565F2EFC2FECB2EDB35D0F
:10016000F5146F20885E00A25D48A35D48593920D0
:10017000755E00206C554220002400260055F95A77
:100180001D59062E2E5DD01C8B401B5D8C14914199
:10019000A5206C2400260055F92070240D26FF555B
:1001A000F92000427222A05A6455B91CAF4214557E
:1001B000CA56232074A6B2A7B3592155CAA4B2A522
:1001C000B3592155CAA0B2A1B359D955CA55CA20AD
:1001D0000059065DF514E155CA2074592155CA41EC
:1001E000CF20742200592155CA567522A059FCA26D
:1001F000B0A3B1A6B2A7B3592155CAA4B2A5B359A9
:10020000214173590655CAA2B6A3B7590655CAA2C9
:10021000B4A3B5C020002401260055F9227457C8A4
:100220001A2441165203226C560E581D5D5355CAAE
:1002300055CA57EC5D5C55CA421C200024012600BB
:1002400055F9520320A055F9226C57C8125C2000C2
:100250005203227455F957C8126042425562426AED
:10026000411620005203206C55F9200052032070E3
:1002700055F942862074227057C81A8414842000CD
:10028000554F426241162000551C59065DF51C92DF
:10029000427455CA2E3F5DD0149C42BD59062E248F
:1002A0005DD01CAB55CAD1533943442E3F5DD01CA1
:1002B000B855CAD253394344D05339434455CA5927
:1002C0005B228C24DD4394248C59A55D9A14D5556A
:1002D0002D557542862E3B5DD01CE5228C55B91CF0
:1002E000E3427442862E235DD01CF9228C55B9144A
:1002F000F7226C5575423A42862E215DD0000000EF
:1003000000140543112094226C554F55CA20004219
:10031000EB2E265DD01C1D2274557542862E245D61
:10032000D01C2DA4B0A5B1566A5D284286207A560D
:100330005F207822E0565F41162E7E2FE0C02E7E91
:100340002FE9B5C055CA59065DF51C4E438C2E22C7
:100350005DD01C564378228C24E74394533EF0D161
:10036000951C6B208C566A58B04392F0D2951C7441
:10037000588D4392581D439255CA57F459062E3B47
:100380005DD014885D5C439255CA4392207822A0C8
:10039000411642865973595B200059065DF51CA829
:1003A000207822E1565F4116228024DF445020004D
:1003B000228059D959065DF51CBC444055CA2E29E6
:1003C0005DD01CC644402E205DD01CCE4440595BFD
:1003D000228424E1445059BF228059FC2080228489
:1003E0002E2B5DE91CEA56C043AE2E2D5DE91CF4B0
:1003F00056D543AE2E2A5DE91CFE56FE43AE2E2F87
:100400005DE900001C0A572143AE2E3D5DE91C1E2C
:1004100057C81418554243AE2201563843AE2E3CFD
:100420005DE91C2A57C81A1844142E3E5DE91C3693
:1004300057C81A144418207822E2228059D941164C
:1004400022A059FC59A520A05562200059BF4BD0CD
:100450005973595B200059062E285DD01C6855CA77
:1004600024E322884394451024882E2D5DD01C80DF
:1004700055CA24E522884450208855EB55CA4510BA
:100480005D8C148A22885A6445105D9A1494552D07
:10049000559B450E2E255DD01CA02290559B450EE8
:1004A0002E235DD01CAC226C559B450E2E215DD0B9
:1004B0001CB82294559B450E2E275DD01CC4229853
:1004C000559B450E2E265DD01CD02274559B450EA3
:1004D0002E245DD01CE05D00208856382000450E9B
:1004E0002E3F5DD014E845022000220059D9240097
:1004F000260055F95A1D228824E94394220059FC0C
:10050000450E207A565F22F02078565F411655CA74
:1005100059A520885562200059BF4BD0595B590618
:100520002E205DD01C2A55CA451E59A5C0F0A2F642
:10053000F7F5F5B2A3F6F1F6F182B2F0A3F5F1F515
:10054000B3C0A1BFDCBEF021E0617E47AFB1C0A166
:10055000BFA3BDDCBE23E921E061637E55AFB1AD31
:10056000B3C0A1BFA3BDDCBE21E923E061637E6807
:10057000AFB1ADB3C0A5BFA3BDDCBE25E923E06527
:10058000637E7BAFB5ADB3C0A1BFA5BDDCBE21E925
:1005900025E061657E8EAFB1ADB5C0A3BFA5BDDC62
:1005A000BE23E925E063657EA1AFB3ADB5C0A1BFB1
:1005B00061616121E9F5AFB1C0A3BFDCBE23E91CD5
:1005C000C7637EBDAFB3C0AFB3C1A1BFDCBE21E97D
:1005D000F2E01CD7617ECEAFB1C0A1BFDCBEF1217D
:1005E000E9F8E012E8617EDFAFB1C0A1BFDCBE2157
:1005F000E9F4E0617EEFAFB1C021A7E06121A6E0A0
:100600006121A5E06121A4E0A1F8F8F8B1C023A719
:10061000E06323A6E06323A5E06323A4E0A3F8F846
:10062000F8B3C023E9B76323E9B66323E9B56323CD
:10063000E9B4A3F8F8F8B3C021A3E06121A2E0F087
:100640006121E06121E0A1F8F8F8B1C02E7D2FF022
:10065000E0C02E7D2FE9F4E0C02E7D2FE9F6C02109
:10066000A3E06121A2E0A1F8B1C021E9B36121E9D1
:10067000B2A1F8B1C021E9B76121E9B66121E9B5BC
:100680006121E9B4A1F8F8F8B1C0A1BFDCBEF12145
:10069000E9F5E0617E8FAFB1C0A3BFDCBEF123E915
:1006A000F5E0637E9EAFB3C0656565DCBEF0BFAFAD
:1006B000F625E9F6E0F7BFA5F8B57EAF65AFF6C061
:1006C000A1BFA3BDDCBEF123E921EBE061637EC7DE
:1006D000AFB1ADB3C0A1BFA3BDDCBEFAF321E92326
:1006E000E821E061637EDCAFB1ADB3C0A6B7A5B6CB
:1006F000A4B5F0B4C0A5B4A6B5A7B6F0B7C0595B11
:10070000597324A0558824A4559B554222A024A4A3
:10071000D0BA56A81A1856C056997A1259BF59A578
:10072000C059D9595B5943564C240055AE1A375518
:10073000EB55CA5652240159735675209055F9A2AB
:10074000B0A3B155AE1A4D55EB55CA56525623209B
:100750009028002A00A41C9B56F5A41C8E56F5A4D4
:100760001C8156F5A41C7420905542598B247F2679
:10077000FF55F9C1560E56D51A7D68477656C056B4
:10078000EC560E56D51A8A69478356C056EC560E5B
:1007900056D51A976A479056C056EC560E56D51A3B
:1007A000A46B479D56C059BFA514AF55EB55CAA8B9
:1007B000B4A9B5AAB6ABB7598B55F956591AC35552
:1007C000EB55CA59A559FCC0A1BFA3BDF0BCDCBE06
:1007D000FAF321E923E86163BBAB14DED1BC7ED11F
:1007E000ABF5F3AFB1ADB3AC14EBC1C05973595B0A
:1007F000220047F85973595B5943A2B4A3B559066F
:100800005DF5140E5DDD140E5D2855CA47FE24000B
:100810005DDD141655CA598B59A559BFC0594359A6
:10082000D9595B5973A2B0A3B1229059D92E7CD16A
:100830002FE055AE1A3E55EB55CA222D5D2822AC4D
:1008400024272610560E572158C32290554F22AC0C
:10085000240326E8560E572158C32290554F22AC48
:1008600024002664560E572158C32290554F22ACBF
:100870002400260A560E572158C3209021E95D48CE
:10088000229059FC59BF59A559FC598BC0595B5945
:1008900073A6B4A7B559735623A45D48A55D48A6B1
:1008A0005D48A75D4859BFA4B6A5B759BF59A5C0B3
:1008B0005943595BA2B0A3B1A05D48A15D4859A5B9
:1008C000598BC021E91CCE2E7C2FE914CEC15D4886
:1008D0002E7CF02FE0C021A3E3A2E3C02DAFE3AE56
:1008E000E3C02CFE2E3258DC6D2EC058DCC02E002A
:1008F0002FE1C020405E005D005D285DB7A358EE8B
:1009000058E25D5C401BA0BCA1BD2DE92E002FE18B
:100910006D2DE9B16D2DE9B05FFEACB0ADF8F8B169
:10092000C021E92E002FE16121E9BD6121E9BC2D43
:10093000A3E3A2E3A1F8F8B1C020FC220021A2E4C5
:10094000A3E5C0D2BC2EFC2FEDF19CE5BFEC12510B
:10095000F8E4BE2FA1E06F2FA0E0C0D2BC2EFC2F88
:10096000EDF19CE5BFEC1269F8E4BE2FA3E06F2F18
:10097000A2E0C0D2BC2EFC2FEDF19CE5BFEC1281B1
:10098000F8E4BE2FA5E06F2FA4E0C02EFC2FECBE34
:10099000EDBF2FE9B16F2FE9B02CFC2D6FAFE51C37
:1009A000A46EAEE4C02EFC2FECBEEDBF2FE9B36FFA
:1009B0002FE9B22CFC2D6FAFE51CBE6EAEE4C02E4D
:1009C000FC2FECBEEDBF2FE9B56F2FE9B42CFC2D49
:1009D0006FAFE51CD86EAEE4C0A3BDD4BC2EFC2F17
:1009E000EDF19CE5BFEC12E9F8E4BEDCBC23E92F95
:1009F000E06FAF1CF66E637CEDADB3C0A3BD2EFC03
:100A00002FECBEEDBFDCBC2FE923E06FAF1C106EF6
:100A1000637C07ADB32CFC2DAEE4AFE5C059435960
:100A20005B22A055625D005CEF14315D695D6D4A2B
:100A3000532E085DD01C4B22A057C81C3F4A255599
:100A4000DA22085D285D535D284A255D2859215525
:100A5000CA4A252200592155CA592122A0554F5969
:100A6000A5598BC05943595BA0B4A1B5A2B0A3B19D
:100A7000554220A05542A4B0A5B159062E305DD0F4
:100A80001C844ABF5DB720A4563820A022A055B9C7
:100A9000149E22A85562568A568A56C0568A22A4A7
:100AA00056C0A4B0A5B155CA59065D8C14B04A848D
:100AB00059A520A05562598BC020A055F94AB024F1
:100AC00000260055CA590650A614B95DB756F5A3BD
:100AD000B74AC3204E5E00F0B45D005D285DB7A349
:100AE000B55D005D285DB7A3B6F0B722A0560E5DD8
:100AF000005D285DB7A3F4BB00000000000000000B
:100B00005D5C22A0588D223A5D28D0BA20A05906FB
:100B100058B055CA7A0C7B005D5C401B204E5E00CD
:100B2000F0B45D005D285DB7A3B55D005D285DB7DD
:100B3000A3B65D005D285DB7A3B722A0560E5D5C2D
:100B400022A0588D223A5D285D005CEF1C645D2870
:100B50005DB7A3B45D005D285DB7A4B220A05921A4
:100B600055CA4B3E5D5C401BFFFFFFFFFFFFFFFFD1
:100B7000FFFFFFFFFFFFFFFFFFFFFFFFFFFFFFFF85
:100B8000FFFFFFFFFFFFFFFFFFFFFFFFFFFFFFFF75
:100B9000FFFFFFFFFFFFFFFFFFFFFFFFFFFFFFFF65
:100BA000FFFFFFFFFFFFFFFFFFFFFFFFFFFFFFFF55
:100BB000FFFFFFFFFFFFFFFFFFFFFFFFFFFFFFFF45
:100BC000FFFFFFFFFFFFFFFFFFFFFFFFFFFFFFFF35
:100BD000A51CDCA41CDC207822B041163542C7439A
:100BE000AE43D644664478435C44FCFFFFFFFFFFFE
:100BF000FFFFFFFFFFFFFFFFFFFFFFFFFFFFFFFF05
:100C00005D5C5F00401BDCB4D0B7F0D484F18BB6E0
:100C100027E95D48770A223A5D2827EC5D4827EDF1
:100C20005D4827EE5D4827EF5D485D5C7408401B1A
:100C3000DCB4D0B7F0D484F18BB65D005DB727A3E8
:100C4000E05D487734223A5D285D005DB727A3E474
:100C50005D485D005DB727A3E55D485D005DB72792
:100C6000A3E65D485D005DB727A3E75D485D5C7462
:100C700032401B204E5E005D005D285DB7A3B55D70
:100C80005C22465D28A55D4822305D28223A5D2819
:100C9000A5B0D0B15D535D005D285DB7A3B45D0024
:100CA0005D285DB7A4B258D671945D5C401B5D5C55
:100CB00058E2200022465D28A05D4822305D2822AF
:100CC0003A5D285FFEA3B5A25D48A55D4871C35D8E
:100CD0005C70B4401B5D5C2400A558EE200022002F
:100CE00058D671E070E058E275D9F058EE401BA27A
:100CF0001CFCF1DD9314FDF1DA9314FDC0C1FFFF7C
:100D00002C0C19022E0C7F06190DF14D10FA000063
:100D1000F6007D08B32C0C191CF14D1FFA0000F6EB
:100D2000007D17B21927C1C02EC02F2C0BA3F1F5DF
:100D30000000000000E1F67D302C0BA2FA0000E17B
:100D40002E0E7F42F67D3FC02230F1FB1A5062F238
:100D5000B34D28595B22205D2859A5C0595B220D4F
:100D60005D28220A5D2859A5C0220D4D28220A4D72
:100D700028D0FD2E402FA2E1D0FD2E802FA3E1D060
:100D8000FDC0D0FD2EC02FD1E1D0FDC02E305DD0F2
:100D90001A992E3A5DD01299C1C02E415DD012A190
:100DA000C02E5B5DD012A8C12E615DD012AFC02EE7
:100DB0007B5DD012B6C1C0F0D39214C0F0D983B31A
:100DC000F0B2C0F0A09214C9C1F0A19314CFC1C079
:100DD000F0A29E14D6C1F0A39F14DCC1C0A2F1946E
:100DE0001CE8A3F1951CE8C0C1A4F19E1CF4A5F178
:100DF0009F1CF4C0C1A31CFCA21CFCC0C1FFFFFFD0
:100E00005943595B32A21C0BA314125D2871046074
:100E10004E0459A5598BC00D496E74656C204D4325
:100E2000532D34202834303034290D0A54696E791A
:100E3000204D6F6E69746F720D0A001B401F020017
:100E40002042414E4B3D0020434849503D00204147
:100E500044523D000D0A56544C2D34303034204954
:100E60006E74657270726574657220566572203199
:100E70002E300D0A000D0A4F4B0D0A004552524FFD
:100E8000523D004255463D0053503D00494E2023FF
:100E9000000D0A763D56544C2C20722F773D52445B
:100EA0002F57522052414D2C20522F572F432F4263
:100EB0003D52442F57522F434C522F424E4B2050FD
:100EC0004D2C206C2F4C3D72642F7772204C4D2C92
:100ED00020673D676F20504D28463030290D0A00AD
:100EE00032C0B7EF99F0886B62C589F563C58AF5A2
:100EF00064C58BF565C58CF58CAF14D0010E886F79
:100F000089C528F58AC529F58BC52AF58CC52BF529
:100F1000A0EC99F028C589F529C58AF52AC58BF575
:100F20002BC58CF5000E8E6F000E8D6FCCC578F53D
:100F3000CDC579F58851D8B40DD08851D8A404D046
:100F4000000E6E6F2B0E03D0000E6E6F2D0E6D6FA8
:100F50006DC588F589C528F58AC529F58BC52AF59B
:100F60008CC52BF5F2EC96F028042910D8A42BD0D0
:100F700005018851D8B40AD0610023F608F5780736
:100F8000D8A07907000E8E6F010E8D6F080E8D258B
:100F9000286E350E8E21296EED0E2A6E86EC99F0A4
:100FA000FD0E7827FF0E792360C539F561C53AF546
:100FB000080E3B6E350E3C6E78C53DF579C53EF5A5
:100FC000A1EC98F0120089C528F58AC529F58BC5D2
:100FD0002AF58CC52BF5F2EC96F028502910D8A4F0
:100FE00019D005018851D8B40AD0610023F608F55C
:100FF0007807D8A07907000E8E6F010E8D6F080E4E
:101000008D25286E350E8E21296EF10E2A6E86EC06
:1010100099F0C6D7000E05018F6F000E906F800EFD
:10102000916F3F0E926F000E776F000E766F89C53D
:1010300028F58AC529F58BC52AF58CC52BF5000E38
:101040002C6E000E2D6E000E2E6E000E2F6E5CECC0
:1010500098F0D8A00CD0BED07AC58FF57BC590F59E
:101060007CC591F57DC592F50501764B772B8FC533
:1010700036F590C537F591C538F592C539F5000EAE
:101080003A6E000E3B6E200E3C6E410E3D6EA3ECA0
:101090008DF036C57AF537C57BF538C57CF539C591
:1010A0007DF505017A51895D286E7B518A59296E3B
:1010B0007C518B592A6E7D518C592B6EDDEC98F04A
:1010C0002BBECAD72B502A10291004E1020E285C2F
:1010D000D8A0C2D77AC54FF57BC550F57CC551F570
:1010E0007DC552F589C553F58AC554F58BC555F5AF
:1010F0008CC556F58AEC96F0D8A0AED705018F5175
:10110000895D286E90518A59296E91518B592A6EAA
:1011100092518C592B6EDDEC98F02BBE08D02B50E1
:101120002A10291043E1020E285CD8B03FD08FC5A9
:1011300089F590C58AF591C58BF592C58CF54AD095
:101140008FC536F590C537F591C538F592C539F597
:10115000000E3A6E000E3B6E200E3C6E410E3D6E50
:1011600063EC93F036C58FF537C590F538C591F52A
:1011700039C592F505017607D8A077078F51895DAB
:10118000286E90518A59296E91518B592A6E92512D
:101190008C592B6EDDEC98F02BBEC9D72B502A1042
:1011A000291004E1020E285CD8A0C1D789C54FF5EB
:1011B0008AC550F58BC551F58CC552F58FC553F5D1
:1011C00090C554F591C555F592C556F58AEC96F043
:1011D000D8A0B6D766C570F570C571F50501CFBF4B
:1011E00005D0CEC569F5CFC56AF504D0000E6A6F8B
:1011F000060E696F69C574F56AC575F5744B752B74
:10120000660E7119D8A416D077AF0CD0000E8F6F70
:10121000000E906F800E916F3F0E926F000E776FF1
:10122000000E766F670E7019D8B404D0765174270B
:1012300077517523000E876F000E866F89C57EF586
:101240008AC57FF58BC580F58CC581F58FC57AF58C
:1012500090C57BF591C57CF592C57DF57BD07EC5AB
:1012600036F57FC537F580C538F581C539F58FC5A9
:101270003AF590C53BF591C53CF592C53DF563EC5B
:1012800093F036C54FF537C550F538C551F539C51A
:1012900052F5A6EC94F04FC582F550C583F551C5C3
:1012A00084F552C585F582C528F583C529F584C521
:1012B0002AF585C52BF558EC97F028C572F529C598
:1012C00073F57EC54FF57FC550F580C551F581C5D5
:1012D00052F582C53AF583C53BF584C53CF585C515
:1012E0003DF58FC536F590C537F591C538F592C5F2
:1012F00039F5A3EC8DF036C553F537C554F538C52F
:1013000055F539C556F525EC99F04FC57EF550C514
:101310007FF551C580F552C581F58FC536F590C56D
:1013200037F591C538F592C539F5000E3A6E000EC5
:101330003B6E200E3C6E410E3D6E63EC93F036C565
:101340008FF537C590F538C591F539C592F505018A
:10135000864B872B7451865D8751800A5B6E755171
:10136000800A5B58D8A07BD78FC536F590C537F576
:1013700091C538F592C539F5000E3A6E000E3B6EF8
:10138000A00E3C6E400E3D6EA3EC8DF036C582F58E
:1013900037C583F538C584F539C585F57EC54FF564
:1013A0007FC550F580C551F581C552F582C553F50D
:1013B00083C554F584C555F585C556F58AEC96F078
:1013C000D8B003D0000E050118D07EC528F57FC522
:1013D00029F580C52AF581C52BF582C52CF583C575
:1013E0002DF584C52EF585C52FF55CEC98F0D8A0B9
:1013F0000BD0050172B108D0000E826F000E836F12
:10140000000E846F000E856F89C528F58AC529F501
:101410008BC52AF58CC52BF582C52CF583C52DF51A
:1014200084C52EF585C52FF537EC8FF028C57EF5E0
:1014300029C57FF52AC580F52BC581F57EC54FF5F9
:101440007FC550F580C551F581C552F5000E3A6E45
:10145000000E3B6E200E3C6E410E3D6E7AC536F599
:101460007BC537F57CC538F57DC539F5A3EC8DF026
:1014700036C553F537C554F538C555F539C556F554
:101480008AEC96F0D8A024D00501764B772B7AC54C
:1014900036F57BC537F57CC538F57DC539F5000EC9
:1014A0003A6E000E3B6E200E3C6E410E3D6EA3EC7C
:1014B0008DF036C57AF537C57BF538C57CF539C56D
:1014C0007DF5660E05017119D8A402D0744B752BF9
:1014D0007AC58FF57BC590F57CC591F57DC592F5F4
:1014E00076C567F577C568F505016F6B000E6C6F03
:1014F000000E6B6F000E876F000E866FCDD07EC51D
:1015000036F57FC537F580C538F581C539F58FC506
:101510003AF590C53BF591C53CF592C53DF563ECB8
:1015200093F036C54FF537C550F538C551F539C577
:1015300052F5A6EC94F04FC582F550C583F551C520
:1015400084F552C585F582C528F583C529F584C57E
:101550002AF585C52BF558EC97F029BE06D0295001
:1015600013E10A0E285CD8B00FD082C528F583C5D8
:1015700029F584C52AF585C52BF558EC97F028C5C3
:1015800072F529C573F505D0000E0501736F090EBC
:10159000726F05016F51D8B468AF20D0080E8D2549
:1015A000D96E350E8E21DA6E2E0EDF6E8D4B8E2BA0
:1015B0007807D8A07907010E6F6F10D0080E8D251F
:1015C000D96E350E8E21DA6E300EDF6E8D4B8E2B7E
:1015D0007807D8A079076B07D8A06C076B516C11FE
:1015E000D8A4ECD7080E8D25D96E350E8E21DA6E73
:1015F0007251300FDF6E8D4B8E2B7807D8A0790794
:101600007EC54FF57FC550F580C551F581C552F5B2
:1016100082C53AF583C53BF584C53CF585C53DF5E6
:101620008FC536F590C537F591C538F592C539F5B2
:10163000A3EC8DF036C553F537C554F538C555F5CF
:1016400039C556F525EC99F04FC57EF550C57FF5A7
:1016500051C580F552C581F58FC536F590C537F572
:1016600091C538F592C539F5000E3A6E000E3B6E05
:10167000200E3C6E410E3D6E63EC93F036C58FF547
:1016800037C590F538C591F539C592F5050167075D
:10169000D8A06807864B872B7451865D8751800AD6
:1016A0005B6E7551800A5B58D8B008D08EBF27D7C3
:1016B0008E5104E14B0E8D5DD8A021D7000E876FAF
:1016C0004F0E866F080E8625D96E350E8721DA6E8D
:1016D000DF6A080E5B6E350E5C6E8D515B5E8E515F
:1016E0005C5A86515B24286E87515C20296E080E57
:1016F0002A6E350E2B6E8DC52CF58EC52DF548EC5A
:1017000099F08D51865D8D6F8E5187598E6F8851FE
:10171000D8B402D0010E01D0000E866F876BD4B30F
:101720000FD022D08D07D8A08E07080E8D25D96E38
:10173000350E8E21DA6E300EDF6E7807D8A079076D
:101740007851865D8751800A5B6E7951800A5B58BB
:10175000D8B00AD08D51865D8751800A5B6E8E515C
:10176000800A5B58D8A0DED78851D8B40BD08D073B
:10177000D8A08E07080E8D25D96E350E8E21DA6E13
:1017800088C5DFF48651785F8751795B60C539F58C
:1017900061C53AF5080E8D253B6E350E8E213C6EE7
:1017A00078C53DF579C53EF5A1EC98F01200080E1C
:1017B0000001B16F0401006BBE68BF0EC66E016907
:1017C000086BC7680969106BC068FE0EC86E1169A6
:1017D000186BE30EC16EE30EC96E1969C16A206B06
:1017E000CA6821691897C9961C0E02011C6F040172
:1017F0001895C9941A0E02011B6F876A786A020E47
:101800007F6E020E706E866A776A886A796A000E49
:10181000826E560E816E81C472F482C473F4000E1F
:101820008A6E190E896E89C47AF48AC47BF4840E98
:10183000876E0000000000000000000000000000B3
:101840000000000000000000840E786E010E02010E
:10185000D56FA00ED46FD189D18B0401009FC68EA5
:10186000070E0201766F0401009DBE8CC69C260EF9
:101870000201076FD28F000E366E000E376E7A0EA1
:10188000386E470E396E010E81240501BA6F000EC5
:101890008220BB6FBAC528F5BBC529F52A6A2B6A19
:1018A000000E7AEC95F028C53AF529C53BF52AC516
:1018B0003CF52BC53DF563EC93F036C5BCF537C55B
:1018C000BDF538C5BEF539C5BFF5CC0E0501A56F10
:1018D000BCC5A6F5BDC5A7F5BEC5A8F5BFC5A9F58C
:1018E000CDEC99F089C428F58AC429F52A6A2B6AB7
:1018F000000E7AEC95F028C536F529C537F52AC5CE
:1019000038F52BC539F5000E3A6E000E3B6E7A0E97
:101910003C6E410E3D6EA3EC8DF036C5C0F537C56B
:10192000C1F538C5C2F539C5C3F5820E0501A56FED
:10193000C0C5A6F5C1C5A7F5C2C5A8F5C3C5A9F51B
:10194000CDEC99F07AC428F57BC429F52A6A2B6A74
:10195000000E7AEC95F028C536F529C537F52AC56D
:1019600038F52BC539F5000E3A6E000E3B6E7A0E37
:101970003C6E410E3D6EA3EC8DF036C5C0F537C50B
:10198000C1F538C5C2F539C5C3F55A0E0501A56FB5
:10199000C0C5A6F5C1C5A7F5C2C5A8F5C3C5A9F5BB
:1019A000CDEC99F0A90EA56FCDEC99F0010EA56FC5
:1019B000CDEC99F0110E0201616F020E0001D56F9E
:1019C000D86B7F0ED96F7F0EDA6F7F0EDB6F010E43
:1019D000DC6F100EDD6F100EDE6F400EDF6FD76B09
:1019E000820ED66FD190C990030E0201196F550E69
:1019F0000401596FAA0E596F5991080E5D6F000EC0
:101A00005E6F000E5F6F550E596FAA0E596F5981A8
:101A1000000E0501D36F000ED26F000ED225F66EB8
:101A2000000ED321F76EF86A010EF822000ED225BF
:101A3000D96E060ED321DA6E0800F5C4DFF4D24B5E
:101A4000D32BE20ED25D0E0ED359D8A0E6D7000EEE
:101A5000D36F000ED26F000ED225D96E350ED32172
:101A6000DA6EDF6AD24BD32BD35104E1080ED25D7C
:101A7000D8A0F1D70E6A0F0E156E006A016A026ACD
:101A8000036A046A056A0B6A0C6AD0B6FED7D0A650
:101A9000FED7D1A4FED7D1B4FED7AE9E04011587E0
:101AA0009E8ED68EC188F50E0501A56FCDEC99F0FE
:101AB000000ED36F000ED26F000ED16F000ED06FEC
:101AC00012C520F513C521F5081C246E14500F0B08
:101AD000266E0DC525F50CC527F52E0E0501A56F43
:101AE00020C5A6F521C5A7F524C5A8F5A96B26C56F
:101AF000AAF5AB6B0CC5ACF5AD6B25C5AEF5AF6B00
:101B000003C5B0F5B16B02C5B2F5B36B01C5B4F551
:101B1000B56B00C5B6F5B76BCDEC99F0D04BD12BBA
:101B2000D15104E1040ED05DD8A0CAD7A60EA56F8E
:101B3000CDEC99F0D24BD32BD351B5E1170ED25D3A
:101B4000D8B0B1D7B9D73950800B426E395039244B
:101B5000486E38BE48804850D8B40DD04828D8A424
:101B600008D0000E366E000E376E000E386E000E76
:101B7000396E388E08D0000E366E000E376E000EAD
:101B8000386E000E396E3D50800B421A3D503D2498
:101B9000436E3CBE43804350D8B40DD04328D8A4F4
:101BA00008D0000E3A6E000E3B6E000E3C6E000E2A
:101BB0003D6E3C8E08D0000E3A6E000E3B6E000E5D
:101BC0003C6E000E3D6E4350D8B403D04850D8A4AC
:101BD00009D0000E366E000E376E000E386E000E05
:101BE000396E12003C503602F3C44DF5F4C44EF584
:101BF0004D50446E456A466A476A4E50496E4A6A7D
:101C00004B6A4C6A3B503702F3C44DF5F4C44EF5B1
:101C10004D504426000E4522462247224E5049266A
:101C2000000E4A224B224C223A503802F3C44DF5A2
:101C3000F4C44EF54D504426000E4522462247225C
:101C40004E504926000E4A224B224C2246C547F5EB
:101C500045C546F544C545F5446A3A503702F3C4D4
:101C60004DF5F4C44EF54D5044264E504522000E1D
:101C70004622000E47223B503602F3C44DF5F4C411
:101C80004EF54D5044264E504522000E4622000E81
:101C9000472246C547F545C546F544C545F5446A5E
:101CA0003A503602F3C44DF5F4C44EF54D50442677
:101CB0004E504522000E4622000E47223C5037026D
:101CC000F3C44DF5F4C44EF54D5049264E504A220A
:101CD000000E4B22000E4C223B503802F3C44DF54F
:101CE000F4C44EF54D5049264E504A22000E4B2268
:101CF000000E4C223C503802F3C44DF5F4C44EF5AE
:101D00004D503E6E4E503F6E406A416A40C541F5AF
:101D10003FC540F53EC53FF53E6A3E5049263F501F
:101D20004A2240504B2241504C2247504926000E37
:101D30004A224B224C2246C547F545C546F544C5C7
:101D400045F5446A435048C53EF53F6A3E26000EBD
:101D50003F22820E3E244D6EFF0E3F204E6E0FD06E
:101D6000D89049364A364B364C3647BE4980D890D3
:101D700044364536463647364D06D8A04E064BAE5D
:101D8000EFD7436A47AE17D0FF0E44143E6EFF0EE6
:101D900045143F6EFF0E4614406E7F0E4714416E91
:101DA0003E503F1040104110D8B403D0010E436E96
:101DB00002D049B0FBD74350D8B41FD0010E4926FA
:101DC000000E4A224B224C224CA017D049C53EF5AA
:101DD0004AC53FF54BC540F54CC541F5413441324C
:101DE00040323F323E323EC549F53FC54AF540C517
:101DF0004BF541C54CF54D4A4E2A4EBE0DD04E50C6
:101E000003E14D28D8A008D0000E496E000E4A6E9E
:101E1000800E4B6E7F0E1FD04EBE05D04E500DE192
:101E20004D04D8B00AD0000E496E000E4A6E000E66
:101E30004B6E000E4C6E426A0FD04DC548F5FF0E3A
:101E40004916FF0E4A167F0E4B16000E4C1648B070
:101E50004B8ED89048304C6E42504C1249C536F5E6
:101E60004AC537F54BC538F54CC539F512002B502E
:101E7000800B346E2B502B24366E2ABE36803650A3
:101E8000D8B40ED03628D8A408D0000E286E000E84
:101E9000296E000E2A6E000E2B6E2A8E2B6A08D039
:101EA000000E286E000E296E000E2A6E000E2B6E9C
:101EB0002F50800B356E34503518D8A4348C2F50E9
:101EC0002F24356E2EBE35803550D8B40ED035282F
:101ED000D8A408D0000E2C6E000E2D6E000E2E6EB3
:101EE000000E2F6E2E8E2F6A08D0000E2C6E000E64
:101EF0002D6E000E2E6E000E2F6E3650355CD8B053
:101F000022D034AC02D0800E341A36C537F535C530
:101F100036F537C535F528C537F52CC528F537C54D
:101F20002CF529C537F52DC529F537C52DF52AC559
:101F300037F52EC52AF537C52EF52BC537F52FC534
:101F40002BF537C52FF5376A365035C530F5316A70
:101F5000305E000E315A31BE2CD0315004E11A0EE1
:101F6000305CD8A026D0285029102A102B10D8B4C5
:101F700002D0010E01D0000E376E000E286E000E4A
:101F8000296E000E2A6E000E2B6E35C536F515D063
:101F900037A005D0D89037300109376E02D0D890DD
:101FA000373228B0378E2B342B322A32293228325E
:101FB000362A3550365CD8A0EBD734BC28D0365002
:101FC000D8A409D0000E286E000E296E000E2A6ECD
:101FD000000E2B6E12002C5028262D5029222E5038
:101FE0002A222F502B222BA071D037A005D0D890B9
:101FF00037300109376E02D0D890373228B0378E8B
:102000002B342B322A3229322832362A5FD02C50F8
:10201000285C2D5029582E502A582B50800A306E9B
:102020002F50800A3058D8B025D028502C5C306E04
:1020300029502D58316E2A502E58326E2B502F5861
:10204000336EFF0E3024286EFF0E3120296EFF0EF6
:1020500032202A6EFF0E33202B6E800E341A376C1E
:102060003750D8A40FD0010E2826000E29222A228C
:102070002B2208D02C50285E2D50295A2E502A5A37
:102080002F502B5A285029102A102B10D8A41CD0BE
:102090003750D8A419D0000E286E000E296E000EFD
:1020A0002A6E000E2B6E1200D890283629362A365A
:1020B0002B3637BE288037A002D0D88001D0D890E8
:1020C00037363650D8A436062AAEEED7356A37AE44
:1020D0000BD037C530F57F0E3016D8B403D0010EC3
:1020E000356E02D028B0FBD73550D8B420D0010EC1
:1020F0002826000E29222A222B222BA018D028C500
:1021000030F529C531F52AC532F52BC533F5333401
:10211000333232323132303230C528F531C529F50B
:1021200032C52AF533C52BF53628D8A4362A3628E9
:10213000D8B403D03650D8A40BD0000E286E000EB1
:10214000296E000E2A6E000E2B6E3650D8B4346AFB
:1021500036A002D02A8E01D02A9ED89036302B6E1F
:1021600034BE2B8E28C528F529C529F52AC52AF5A0
:062170002BC52BF5120047
:102178000401176BD1A4FED7CE1C0F0BE96E116EAC
:10218800D1B4FED7D1A4FED7CE1C0F0BE838E92670
:10219800E9C412F50000000000000000CE1C0F0B7F
:1021A800136E15640024060FEA6EEF1C086EE838FB
:1021B800076EBE6ED01CF00BE8380B6EE8400C6E54
:1021C800000000000000B00EC66E081C0F0B096E60
:1021D800030B0A6E0BC5E9F4350EEA6EEFC40DF574
:1021E800CF1C020B066E000008C5BEF400000000FC
:1021F8000000CFB2D0D009A641D0000000000000F6
:1022080000000000000000000000BF0EC66E0000C5
:1022180000000950E8B429D00A0A20E1CE1C146E47
:102228000DAE05D00EA006D00F380E9007D0B71C03
:102238000E6A04D00201C71D0F6E0E80BE6ED1A4B7
:10224800FED7CE1C146ED1B4FED7B00EC66ED1A484
:10225800FED7D1B4FED7BF0EC66E11000DC5E9F486
:102268000C50250FEA6EEF1CE9D70D50F00B0A242D
:10227800E96E0C502D0FEA6EEF1CE0D7000000004D
:1022880000000000000000000000BF0EC66E0950EC
:1022980060E0E8B46ED0010A20E0030A43E0D1A46C
:1022A800FED7CE1C146ED1B4FED70DC5E9F400508C
:1022B800150FEA6E045009E0EF500F0BEF6ECE1CBD
:1022C800E838F00BEF26046A1100EF50F00BEF6EC0
:1022D800CE1C0F0BEF2604681100D1A4FED7CE1C2C
:1022E800146ED1B4FED70D50C00B0FE0C00A11E038
:1022F800800A03E0400A05E01100CE1C0F0B016EB6
:102308001100CE1C0F0B026E1100CE1C0F0B006EBD
:102318001100CE1C0F0B036EE8A002D0C080110084
:10232800C0901100D1A4FED7CE1C146ED1B4FED734
:102338000DAE11000EA208D0CE1C0F0BE8381010FD
:102348000201C96F0E921100CE1C0F0B106E0E8287
:102358001100D1A4FED7CE1C146ED1B4FED70DC582
:10236800E9F40C50250FEA6ED1A4FED7CE1CEF6E0F
:102378001100D1A4FED7CE1C146ED1B4FED70D50D7
:10238800F00B0A24E96E0C502D0FEA6ED1A4FED78B
:10239800CE1CEF6E1100065016E0081C0E0A01E074
:1023A80016D00000000000000000BF0EC66ED1B4B9
:1023B800FED70DC5E9F40050150FEA6EEF1C05B005
:1023C800E838051E3BD700000000000000000000B0
:1023D8000000BF0EC66ED1B4FED7081CF10B210A4F
:1023E80005E0D1A4FED7CE1C146E1100D1A4FED7EF
:1023F800CE1C146ED1B4FED700000000000000000F
:10240800CFB21100CE1C0F0BE8380D6ED1A4FED749
:10241800D1B4FED70000000000000000CE1C0F0B56
:102428000D120CC5E9F4350EEA6E0DC5EFF4110076
:1024380095C5D9F496C5DAF4DFC4F6F4400EF76E04
:10244800000EF86E0800F550250AD8A423D195C5CA
:10245800D9F496C5DAF4DF2A000ECD6F000ECC6FE2
:10246800CCC5D4F5CE69CF69996B1AD0D48395C5FC
:10247800D9F496C5DAF4DF2A13D0010E996F10D07B
:1024880095C5D9F496C5DAF4DFC4F6F4400EF76EB4
:10249800000EF86E0800F550300AD8B4E7D7EDD72B
:1024A8009951D8B4EDD795C528F596C529F597C59E
:1024B8002AF598C52BF5B5EC97F028C5CCF529C5B4
:1024C800CDF5CDAF05D0D481CC6DCD1FD8B0CD2BF7
:1024D80095C5D9F496C5DAF4DFC4F6F4400EF76E64
:1024E800000EF86E0800F5502E0AD8A413D095C532
:1024F800D9F496C5DAF4DF2A95C528F596C529F5E5
:1025080097C52AF598C52BF5B5EC97F028C5CEF5F3
:1025180029C5CFF595C5D9F496C5DAF4DF509F6F74
:102528009FC5F6F4400EF76E000EF86E0800F550E1
:10253800580AD8A431D097C5D9F498C5DAF4DFC4BD
:102548005DF5020EDE26DFC45EF5000EDD225DC5F8
:10255800D9F45EC5DAF4DEC49AF5DDC49BF59F298B
:1025680095C5D9F496C5DAF4DF6E0BD093C542F55C
:1025780094C543F59AC544F59BC545F51AEC96F004
:1025880012009FC5F6F4400EF76E000EF86E0800B4
:10259800F550580AD8B4EAD795C5D9F496C5DAF4EF
:1025A800DF509F6F9FC5F6F4400EF76E000EF86E71
:1025B8000800F5C49EF507D09F2B10D06C0E9E6FB7
:1025C8000DD09E6B0BD09E514C0AD8B4F5D72A0A71
:1025D800D8B4F4D70A0AD8B4EFD7F3D79FC5F6F41E
:1025E800400EF76E000EF86E0800F550660AD8B473
:1025F8001AD04AD097C5D9F498C5DAF4DFC45DF586
:10260800040EDE26DFC45EF5000EDD225DC5D9F4BA
:102618005EC5DAF4DEC49AF5DEC49BF5DEC49CF52B
:10262800DEC49DF507D09E514C0AD8B4E3D7200AE2
:10263800D8B4E0D79F2995C5D9F496C5DAF4DF6EEA
:1026480018D093C560F594C561F59AC562F59BC528
:1026580063F59CC564F59DC565F59FC5F6F4400E08
:10266800F76E000EF86E0800F5C466F573EC87F097
:1026780012009FC5F6F4400EF76E000EF86E0800C3
:10268800F550660AD8B4DDD795C5D9F496C5DAF4FD
:10269800DF2A120095C5D9F496C5DAF4DFC4F6F43A
:1026A800400EF76E000EF86E0800F550296E2A6A83
:1026B80093C52BF594C52CF50CEC98F0E5D739505B
:1026C800800B466E395039244D6E38BE4D804D50C2
:1026D800D8B40ED04D28D8A408D0000E366E000EFF
:1026E800376E000E386E000E396E388E396A08D093
:1026F800000E366E000E376E000E386E000E396E04
:102708003D50800B461A3D503D244E6E3CBE4E80D7
:102718004E50D8B40ED04E28D8A408D0000E3A6E29
:10272800000E3B6E000E3C6E000E3D6E3C8E3D6A08
:1027380008D0000E3A6E000E3B6E000E3C6E000E86
:102748003D6E3A503B103C103D10D8A417D0000EF7
:10275800366E000E376E000E386E000E396E800E23
:1027680038127F0E39124650391236C536F537C53C
:1027780037F538C538F539C539F512004D50D8A4A4
:1027880009D0000E366E000E376E000E386E000E41
:10279800396E12004E504DC53EF53F6A3E5E000E42
:1027A8003F5A7F0E3E24476E000E3F20486E36C5C6
:1027B80042F537C543F538C544F539C545F5000E2A
:1027C800366E000E376E000E386E000E396E000E33
:1027D800496E000E4A6E000E4B6E000E4C6E4E6A2D
:1027E80028D04E50D8B411D0D8904236433644360B
:1027F8004536D89036363736383639364CBE368078
:10280800D89049364A364B364C363A50425C3B50A3
:1028180043583C5044583D504558D8A009D04C8C9A
:102828003A50425E3B50435A3C50445A3D50455AF8
:102838004E2A190E4E64D5D7425043104410451005
:10284800D8B411D049800FD0D890363637363836BC
:1028580039364CBE3680D89049364A364B364C36D7
:102868004706D8A0480638AEEFD74E6A4CAE17D008
:10287800FF0E49143E6EFF0E4A143F6EFF0E4B14B6
:10288800406E7F0E4C14416E3E503F104010411078
:10289800D8B403D0010E4E6E02D036B0FBD74E50DE
:1028A800D8B41FD0010E3626000E3722382239221E
:1028B80039A017D036C53EF537C53FF538C540F5C0
:1028C80039C541F54134413240323F323E323EC58E
:1028D80036F53FC537F540C538F541C539F5474A9E
:1028E800482A48BE10D0485003E14728D8A00BD04A
:1028F800000E486E4768000E366E000E376E000EEA
:10290800386E000E396E48BE05D0485010E14704B5
:10291800D8B00DD0000E486E000E476E000E366E11
:10292800000E376E000E386E000E396E466A47C5C7
:102938004DF54DA002D0388E01D0389ED8904D303C
:10294800396E11D7C4C51CF5C5C51DF5C6C51EF51C
:10295800C7C51FF54FC51CF550C51DF551C51EF55A
:1029680052C51FF5810E536EFF0E546E1CC555F5EA
:102978001DC556F51EC557F51FC558F5180E05D0C7
:10298800D8905832573256325532E82EF9D755502A
:1029980053241A6E000E54201B6E1BBE0FD01B5002
:1029A80004E1170E1A5CD8A009D04FC54FF550C5E1
:1029B80050F551C551F552C552F512001BBE5BD0FA
:1029C8001AC553F5FF0E546EFF0E556E7F0E566EE8
:1029D800000E576E536601D007D05734573256321F
:1029E80055325432532EF6D754C516F555C517F53A
:1029F80056C518F557C519F516501C14536E1750BF
:102A08001D14546E18501E14556E19501F14566E0E
:102A18005350541055105610D8B4C7D71CC553F589
:102A28001DC554F51EC555F51FC556F5200E05D014
:102A3800D8905632553254325332E82EF9D7535083
:102A4800D8B408D016501C2617501D2218501E2224
:102A580019501F22161C536E171C546E181C556EE5
:102A6800191C566E53501C1654501D1655501E16E0
:102A780056501F1632D01CC553F51DC554F51EC53A
:102A880055F51FC556F5200E05D0D890563255324B
:102A980054325332E82EF9D7536608D0000E1C6E14
:102AA800000E1D6E000E1E6E000E16D0D8901C343F
:102AB800536E1D34546E1E34556E1F34566E53506B
:102AC800541055105610D8B408D0000E1C6E000EC5
:102AD8001D6E800E1E6EBF0E1F6E1CC54FF51DC5E8
:102AE80050F51EC551F51FC552F51200306E305015
:102AF800D8A42BAE1AD028C52CF529C52DF52AC582
:102B08002EF52BC52FF52C1E2D1E2E1E2F1E2C2A02
:102B1800000E2D222E222F222CC532F52DC533F57D
:102B28002EC534F52FC535F508D028C532F529C589
:102B380033F52AC534F52BC535F5285029102A1048
:102B48002B10D8A409D0000E286E000E296E000E96
:102B58002A6E000E2B6E1200960E316E06D0312AA8
:102B6800D8903532343233323232000E32142C6E71
:102B7800000E33142D6E000E34142E6EFE0E351416
:102B88002F6E2C502D102E102F10D8B40DD0E7D743
:102B9800312A010E3226000E332234223522D890F3
:102BA8003532343233323232000E32142C6E000E8B
:102BB80033142D6E000E34142E6EFF0E35142F6E46
:102BC8002C502D102E102F10D8B407D0E1D7310675
:102BD800D890323633363436353634BE03D0020E0A
:102BE8003160F5D731A0349ED890313231C52CF5FB
:102BF8002D6A2E6A2F6A2CC52FF52E6A2D6A2C6A2B
:102C08002C5032122D5033122E5034122F503512B0
:102C18003050D8A42BAE01D0358E32C528F533C537
:102C280029F534C52AF535C52BF51200CFAFD49355
:102C3800CFAF05D0000E4A6E010E496E04D0CEC546
:102C480049F5CFC54AF5CCC54BF5CDC54CF5000EB9
:102C58004F6E4F0E4E6E3501576B2AD04E06D8A0D8
:102C68004F0644500F0B4D6E0A0E4D6002D0300EC9
:102C780001D0370E4D26080E4E24D96E350E4F2042
:102C8800DA6E4DC5DFF44906D8A04A064B06D8A02F
:102C98004C0644C546F545C547F5040E486ED89020
:102CA80047324632482EFBD746C544F547C545F559
:102CB8004FBE1BD04F5004E1020E4E5CD8A015D079
:102CC80044504510D8A4CAD74ABE05D04A50C6E1D8
:102CD8004904D8B0C3D74CBE08D04C5003E14B04CC
:102CE800D8A003D00501D4B3B9D742C539F543C537
:102CF8003AF5080E4E243B6E350E4F203C6E4BC500
:102D08003DF54CC53EF5A1EC98F01200000E4F14AD
:102D1800576E000E5014586E800E5114596E7F0E67
:102D280052145A6E5750581059105A10D8A408D037
:102D3800000E4F6E000E506E000E516E000E526E59
:102D4800000E5314576E000E5414586E800E55140E
:102D5800596E7F0E56145A6E5750581059105A1003
:102D6800D8A408D0000E536E000E546E000E556E97
:102D7800000E566E52AE09D04F6C501ED8B0502A75
:102D8800511ED8B0512A800E525656AE09D0536CF7
:102D9800541ED8B0542A551ED8B0552A800E5656FF
:102DA800000E4F1A000E501A000E511A800E521AB9
:102DB800000E531A000E541A000E551A800E561A99
:102DC80053504F5C545050585550515856505258C3
:102DD800D8B002D0D8901200D8801200C8C532F5F9
:102DE800C9C533F5CAC534F5CBC535F528C532F59F
:102DF80029C533F52AC534F52BC535F532C52CF56B
:102E080033C52DF534C52EF535C52FF5180E05D06B
:102E1800D8902F322E322D322C32E82EF9D72C5062
:102E2800306E316A30503110D8A419D0D89032346D
:102E38002C6E33342D6E34342E6E35342F6E2C5068
:102E48002D102E102F10D8A405D0000E296E020EBA
:102E5800286E1200000E296E030E286E120030280C
:102E68003110D8A41CD032C52CF533C52DF534C586
:102E78002EF535C52FF5090ED8902C362D362E3661
:102E88002F36E82EF9D72C502D102E102F10D8A43D
:102E980002D0010E01D0000E286E296A1200000E21
:102EA800296E040E286E12002A342B34316E3150EC
:102EB800D8A409D0000E286E000E296E000E2A6EC6
:102EC800000E2B6E120028C52CF529C52DF52AC534
:102ED8002EF52BC52FF5200E05D0D8902F322E3287
:102EE8002D322C32E82EF9D72C50306E2A8EFF0E58
:102EF8002816FF0E2916FF0E2A16000E2B16960E00
:102F0800315E31AE0DD03150800A970FD8A0D2D79C
:102F1800D8902B322A3229322832313EF9D70DD0B7
:102F28001F0E316407D0C6D7D890283629362A36DE
:102F38002B3631063150D8A4F7D73050D8B408D042
:102F48002B1E2A1E291E286C000E29222A222B221B
:102F580028C528F529C529F52AC52AF52BC52BF535
:102F68001200000E306E000E2F6E28C5D9F429C548
:102F7800DAF4DFC4F6F4400EF76E000EF86E0800BF
:102F8800F5502A0AD8A42ED028C5D9F429C5DAF4D0
:102F9800DF2A2AC5D9F42BC5DAF4DFC42CF5020ED2
:102FA800DE26DFC42DF5000EDD222CC5D9F42DC593
:102FB800DAF4DEC42FF5DDC430F525D00A0E2F0271
:102FC800F3C42CF5F4C42DF53002F3502D262E5001
:102FD8002C242F6E000E2D20306E28C5D9F429C55B
:102FE800DAF4DF2A28C5D9F429C5DAF4DFC4F6F4FF
:102FF800400EF76E000EF86E0800F550D00F2E6EDA
:10300800090E2E64DBD72FC528F530C529F5120027
:103018002B502C10D8B404D02B502C10D8A404D08A
:103028002950DEEC99F0120020EE09F02B50D92639
:103038002C50DA22DE50DE10D8B416D020EE09F07B
:103048002B50D9262C50DA2210EE02F02B50E12614
:103058002C50E222DE50E65CE650800A316EDE50EB
:10306800800A3158D8B0120020EE02F02B50D92631
:103078002C50DA22DEC42DF5DDC42EF52BC5D9F48B
:103088002CC5DAF4DEC42FF5DDC430F52D502F241D
:10309800D96E2E503020DA6E29C5DFF420EE02F00A
:1030A8002B50D9262C50DA22DE2A000EDD221200FF
:1030B800000E2814306E000E2914316E800E2A146A
:1030C800326E7F0E2B14336E3050311032103310A5
:1030D800D8A408D0000E286E000E296E000E2A6EA5
:1030E800000E2B6E000E2C14306E000E2D14316E57
:1030F800800E2E14326E7F0E2F14336E3050311026
:1031080032103310D8A408D0000E2C6E000E2D6E8D
:10311800000E2E6E000E2F6E2C5028180AE12D502E
:10312800291807E12E502A1804E12F502B18D8B47B
:1031380002D0D8901200D88012000501D4A10AD07C
:103148003BC532F53CC533F539C534F53AC535F5D7
:103158006AEC99F03EAE04D0000E3E6E000E3D6E55
:10316800000E416E000E406E0CD0000E2A6E200E2E
:10317800296E39C52BF53AC52CF50CEC98F0404A68
:10318800412A3D50405C4150800A3F6E3E50800AC3
:103198003F58D8A0EAD70501D4B112003BC532F593
:1031A8003CC533F539C534F53AC535F56AEC99F0BF
:1031B80012002BBE09D028C528F529C529F52AC52E
:1031C8002AF52BC52BF5120028C52CF529C52DF598
:1031D8002AC52EF52BC52FF52C1E2D1E2E1E2F1E93
:1031E8002C2A000E2D222E222F222CC528F52DC583
:1031F80029F52EC52AF52FC52BF51200A2C55FF5B6
:103208000FD0A0C593F5A1C594F55F0E0501956F84
:10321800050E966FA3C597F5A4C598F51CEC92F01A
:103228005FC5F6F4400EF76E000EF86E0800F55014
:103238000009D8A4E6D7000E0501A16F000EA06F03
:103248001200000E531A000E541A000E551A800E62
:10325800561A4FC528F550C529F551C52AF552C546
:103268002BF553C52CF554C52DF555C52EF556C56A
:103278002FF537EC8FF028C54FF529C550F52AC52D
:1032880051F52BC552F512002AC530F52BC531F57D
:1032980028C52EF529C52FF510D030C5D9F431C56C
:1032A800DAF4DF50326E304A312A2EC5D9F42FC5F0
:1032B800DAF432C5DFF42E4A2F2A2C06D8A02D06C0
:1032C8002C28EBE12D28D8B41200E7D7000E386E71
:1032D800000E376E0BD036C529F52A6A34C52BF592
:1032E80035C52CF50CEC98F0374A382A375032247B
:1032F800D96E38503320DA6EDF50366E3650D8B477
:103308001200E9D728C52CF529C52DF52A2A2A0443
:103318002B6E2BC5F6F4400EF76E000EF86E2CC51A
:10332800D9F42DC5DAF42C4A2D2A0800F5C4DFF4A7
:10333800DF50D8B41200EAD7285029102A102B10D1
:10334800D8B408D0000E281A000E291A000E2A1A1E
:10335800800E2B1A28C528F529C529F52AC52AF56E
:103368002BC52BF512000DEE08F1500EEE6AE8069B
:10337800FDE101EEC4F1110EEE6AE806FDE104017B
:10338800080E5D6F000E5E6F000E5F6F0001D7EFD5
:103398008BF0A60EB86F050EB96F000EA06F000E69
:1033A800A16FA5C5A2F5B80EA36F050EA46F02EC18
:1033B80099F01200286EB7A2FED728C5C9F21200EC
:0233C8001100F2
:020000040030CA
:100000008C2FFFF79FFFFFFFFFFFFFFFFFFFFFFFAB
:10001000FFFFFFFFFFFFFFFFFFFFFFFFFFFFFFFFF0
:03002000FFFFFFE0
:00000001FF
